:020000040800F2
:1000000078070020D514000815030008170300081E
:100010001B0300081F030008230300080000000062
:10002000000000000000000000000000270300089E
:1000300029030008000000002B030008ED1400084D
:10004000EF140008EF140008EF140008EF14000884
:10005000EF140008EF140008EF140008EF14000874
:10006000EF140008EF140008EF140008EF14000864
:10007000EF140008EF140008EF140008EF14000854
:10008000EF140008EF140008EF140008EF14000844
:10009000EF140008EF140008EF140008EF14000834
:1000A000EF140008EF140008EF140008EF14000824
:1000B000EF140008EF140008EF140008EF14000814
:1000C000EF140008EF140008EF140008EF14000804
:1000D000EF14000891250008EF140008EF14000841
:1000E000EF140008EF140008EF14000800F002F805
:1000F00000F03AF80AA090E8000C82448344AAF188
:100100000107DA4501D100F02FF8AFF2090EBAE885
:100110000F0013F0010F18BFFB1A43F0010318473B
:10012000A4360000C4360000103A24BF78C878C155
:10013000FAD8520724BF30C830C144BF04680C60ED
:10014000704700000023002400250026103A28BF35
:1001500078C1FBD8520728BF30C148BF0B60704739
:100160001FB51FBD10B510BD02F07CFA1146FFF798
:10017000F7FF00F009F802F09AFA03B4FFF7F2FF74
:1001800003BC02F0ABF900000EB502F039F902F041
:100190009FF94FF4165002F0AFF901F055F8002026
:1001A00001F071F94FF6FF70424908807F231A462B
:1001B0000021084600F045FA002010213EA24FF62B
:1001C000E073CDE9002102901F220521202000F0DC
:1001D00018FE012018213BA24FF6E073CDE9002163
:1001E00002904FF478421921052000F00AFE012008
:1001F000182137A24FF6E073CDE9002102904FF4A9
:1002000078421921352000F066FB0120182131A227
:100210004FF6E073CDE9002102901A463221052005
:1002200000F0EFFD012018212DA24FF6E073CDE97B
:10023000002102901A463221352000F04CFB0120AB
:10024000182128A24FF6E073CDE9002102904FF665
:10025000FF724B21052000F0D4FD0120182125A2BA
:100260004FF6E073CDE9002102904FF6FF724B216B
:10027000352000F030FB0120182120A24FF6E0735A
:10028000CDE9002102904FF4FC626421052000F0CA
:10029000B8FD012018211DA24FF6E073CDE9002121
:1002A00002904FF4FC626421352000F014FB00BF83
:1002B000FEE7000014000020CFB5CDB3BCE0BFD8EE
:1002C00000000000CEC2B6C82020202020A1E600F9
:1002D0003A333200CAAAB6C82020202020A3A500A5
:1002E0003A323000B5E7D1B9202020202020A3D613
:1002F000000000003A332E3200000000B5E7C1F7DD
:10030000202020202020A3C1000000003A302E32FF
:1003100000000000704700BFFEE700BFFEE700BF1F
:10032000FEE700BFFEE77047704770470CB500203E
:10033000019000906B48006840F480306949086083
:1003400000BF6848006800F4003000900198401C2D
:100350000190009818B90198B0F5A06FF1D16148EB
:10036000006810F4003F02D00120009001E000205E
:1003700000900098012842D15B48006840F01000CE
:10038000594908600846006820F0030008600846E4
:10039000006840F0020008605248406851494860D7
:1003A0000846406848600846406840F480604860FD
:1003B0000846406820F47C1048600846406840F4D5
:1003C000E81048600846006840F08070086000BF90
:1003D0004448006810F0007FFAD04248406820F09E
:1003E0000300404948600846406840F00200486009
:1003F00000BF3C48406800F00C000828F9D10CBD53
:1004000010B5FFF793FF10BD10B53648006840F0F7
:1004100001003449086008464068344908403149C1
:10042000486008460068324908402E49086008467E
:10043000006820F4802008600846406820F4FE0030
:1004400048604FF41F008860FFF7DAFF4FF000604C
:100450002849086010BD10B5002100200022214B62
:100460005B6803F00C0121B1042906D0082928D1CA
:1004700007E0214B214C236027E01F4B1F4C2360DA
:1004800023E0184B5B6803F47010164B5B6803F4B1
:100490008032022303EB904022B9194B4343174C9F
:1004A00023600DE00F4B5B6813F4003F04D0144B46
:1004B0004343124C236003E00F4B43430F4C236034
:1004C00003E00D4B0D4C236000BF00BF054B5B6884
:1004D000C3F303130B4CE15C084B1B68CB40074C88
:1004E000236010BD00100240002002400000FFF811
:1004F000FFFFF6FE08ED00E000127A000000002089
:1005000000093D000400002070B505460E46144663
:100510003146284600F04DFE204600F0F9FD70BD42
:100520002DE9F05F06460F4614461D46A01B401CF1
:100530001FFA80FAE81B401C1FFA80FB681E83B27A
:10054000601E82B23946304600F007FE4FF00008C8
:100550000FE04FF0000906E00A9800F0D9FD09F11C
:1005600001001FFA80F9D145F6DB08F101001FFAFE
:1005700080F8D845EDDBFD484088401E83B2FB483B
:100580000088401E82B20021084600F0E6FDBDE86A
:10059000F09F2DE9FF4F85B081468A4600200490E8
:1005A00003900798A0EB09050898A0EB0A06CDF880
:1005B0000890CDF804A0002D01DD012705E00DB95C
:1005C000002702E04FF0FF376D42002E02DD4FF0B2
:1005D000010806E016B94FF0000802E04FF0FF38BE
:1005E0007642B54201DD2C4600E034464FF0000B68
:1005F00021E0019A91B2029A90B200F0E4FD0498D1
:10060000284404900398304403900498A04205DDE8
:100610000498001B04900298384402900398A0426A
:1006200005DD0398001B03900198404401900BF1F5
:1006300001001FFA80FB601C8345DADD09B0BDE8CC
:10064000F08F2DE9F04104460D4616461F462B4615
:10065000324629462046FFF79CFF3B462246294664
:100660002046FFF796FF3B46324639462046FFF7C5
:1006700090FF3B46324629463046FFF78AFFBDE8E9
:10068000F081F8B504460D4616461F46B848008866
:100690003B463246294600902046FFF741FFF8BD11
:1006A0002DE9F04104460D4616461F46DDF8188038
:1006B000EA1991B2A21990B24246FFF725FFEA1952
:1006C00091B2A21B90B24246FFF71EFFEA1B91B205
:1006D000A21990B24246FFF717FFEA1B91B2A21B84
:1006E00090B24246FFF710FFAA1991B2E21990B2F8
:1006F0004246FFF709FFAA1991B2E21B90B24246A7
:10070000FFF702FFAA1B91B2E21990B24246FFF72F
:10071000FBFEAA1B91B2E21B90B24246FFF7F4FE29
:10072000BDE8F0812DE9FF4F81B08246174698461B
:10073000DDF838B0002445464FEA4800C0F1030612
:10074000BBF1000F1FD01BE0A14608E04B4622463C
:10075000009750460299FFF7A3FF09F10109A94547
:10076000F4DD002E04DA042000FB0460861D06E0A0
:10077000601B042101FB006000F10A066D1E641C71
:10078000AC42E1DD18E015E02B46224600975046CA
:100790000299FFF785FF002E04DA042000FB0460B5
:1007A000861D06E0601B042101FB006000F10A06C3
:1007B0006D1E641CAC42E7DD05B0BDE8F08F2DE98D
:1007C000FF4F83B081468A469346DDE9106468484E
:1007D00000880290A6F12000C6B204EBD47009EBA9
:1007E0006000401E82B20AEB0400401E83B25146F4
:1007F0004846019400F0B1FC129860BB002527E048
:100800000C2C07D106EB46005A4901EB800010F88A
:10081000058004E0584800EB061010F8058000271A
:100820000FE018F0010F04D00BF0FF0000F05EFCA9
:1008300003E00699C8B200F059FC4FEA6808781C3A
:10084000C7B204EBD471B7EB610FEADB681CC5B229
:10085000A542D5DB2DE0002529E00C2C07D106EBC5
:100860004600444901EB800010F8058004E042484E
:1008700000EB061010F80580002711E03C48A0F8B6
:1008800000B018F0010F07D00AEB050291B209EB96
:10089000070290B200F097FC4FEA6808781CC7B2D4
:1008A00004EBD471B7EB610FE8DB681CC5B2A5425D
:1008B000D3DB2F49029808802C484088401E83B221
:1008C0002A480088401E82B20021084600F045FCFC
:1008D00007B0BDE8F08F2DE9FE4F04460E46914665
:1008E0000C9F23480088029001940096002561E047
:1008F0001E480088401EA04204DB1C484088401E61
:10090000B04201DABDE8FE8F3D783A2D01D10A25CB
:1009100006E02E2D01D10B2502E0A5F13000C5B275
:1009200001944FF0000837E005EB4500134901EB57
:10093000001010F808A04FF0000B25E00C48A0F8BC
:1009400000901AF0800F03D03146204600F03BFCA7
:100950004FF6FF7000EA4A0A601C84B20198201A20
:100960000C280DD1019C701C86B210E03C000020C8
:1009700014000020C4260008382B00082831000885
:100980000BF1010000F0FF0BBBF1080FD6DB00BF3D
:1009900008F1010000F0FF08B8F1300FC4DB0A2DA8
:1009A00003DA04F1100084B202E004F1080084B21A
:1009B000009E7F1C38787E2802DC3878202897DA61
:1009C000FB490298088000BF9CE72DE9FE430646DC
:1009D0000F4615461C46DDF828801DE0F5480088C6
:1009E000401EB04204DBF3484088401EB84201DAA2
:1009F000BDE8FE8320788DE82101EF480388EC48AC
:100A0000028839463046FFF7DAFE284605EBD071FA
:100A100006EB61018EB2641C20787E2802DC20780F
:100A20002028DBDA00BFE3E710B50246012000E032
:100A300050430B00A1F10104E1B2F9D110BD2DE941
:100A4000FF4F83B0074691461E46109C4FF0000AA8
:100A5000002543E0701B401EC1B20A20FFF7E4FFEF
:100A6000B9FBF0F00A21B0FBF1F201FB1208BAF178
:100A7000000F1BD1701EA84218DDB8F1000F13D172
:100A800001202021A346CDE90014029004EBDB7184
:100A9000491001FB057188B2C7490B88C4490A880F
:100AA0000499FFF78CFE17E04FF0010A012108F1CD
:100AB0003000C0B2A346CDE90141009004EBDB71E8
:100AC000491001FB057188B2BB490B88B8490A88F7
:100AD0000499FFF774FE00BF681CC5B2B542B9DBCC
:100AE00007B0BDE8F08F2DE9FC5F054688469146CA
:100AF0009A46DDF830B000950520019000245FE0B3
:100B000004EB0410AD4911F810009BF80010884266
:100B100053D104EB0410A94901EB400040789BF845
:100B20000110884249D108F10F0083B205F10F008E
:100B300082B24146284600F010FB00263BE0002729
:100B400034E00D9890B904EB04109C4901EB40008F
:100B5000801C805D80213941084203D0484600F066
:100B6000D7FA21E0504600F0D3FA1DE09048A0F8F3
:100B7000009004EB0410914901EB4000801C805D63
:100B800080213941084203D04146284600F01BFB32
:100B9000681C85B20098281A102805D1009D08F11C
:100BA00001001FFA80F803E0781CC7B2082FC8DBE9
:100BB00000BF701CC6B2202EC1DB00BF601C84B217
:100BC000019884429CDB7B484088401E83B2794870
:100BD0000088401E82B20021084600F0BEFABDE83F
:100BE000FC9F2DE9FC5F0546884691469A46DDF854
:100BF00030B000950B200190002467E004EB8400E6
:100C000000EB44106E4911F810009BF80010884268
:100C100059D104EB840000EB4410694901EB40001A
:100C200040789BF8011088424DD108F1170083B23B
:100C300005F1170082B24146284600F08EFA0026E0
:100C40003FE0002738E00D98A0B904EB840000EBEA
:100C500044105B4901EB4000801C805D80213941DC
:100C6000084203D0484600F053FA23E0504600F013
:100C70004FFA1FE04E48A0F8009004EB840000EB10
:100C800044104F4901EB4000801C805D80213941B8
:100C9000084203D04146284600F095FA681C85B208
:100CA0000098281A182805D1009D08F101001FFAA4
:100CB00080F803E0781CC7B2082FC4DB00BF701CAB
:100CC000C6B2482EBDDB00BF601C84B201988442CE
:100CD00094DB38484088401E83B236480088401E66
:100CE00082B20021084600F038FABDE8FC9F2DE9E9
:100CF000FC5F0546884691469A46DDF830B000957F
:100D00000120019000246BE004EB84102D4911F8C0
:100D100010009BF8001088425FD104EB8410294931
:100D200001EB400040789BF80110884255D108F152
:100D30001F0083B205F11F0082B24146284600F031
:100D40000CFA002647E0002740E00D9890B904EB2C
:100D500084101C4901EB4000801C805D80213941DA
:100D6000084203D0484600F0D3F92DE0504600F089
:100D7000CFF929E00E48A0F8009004EB8410114947
:100D800001EB4000801C805D80213941084203D086
:100D90004146284600F017FA681C85B20098281AC8
:100DA000202811D1009D08F101001FFA80F80FE002
:100DB000140000203C0000201600002068330008CA
:100DC0001234000840370008781CC7B2082FBCDB7B
:100DD00000BF701CC6B2802EB5DB00BF601C84B2A1
:100DE0000198844290DB71484088401E83B26F486E
:100DF0000088401E82B20021084600F0AEF9BDE82E
:100E0000FC9F2DE9FF4F83B0064688469146DDE9F9
:100E10001147109DB2464FF0000B73E0BBF1000F7D
:100E200042D104EBD471614A1288A2EB6101B14254
:100E300004DB5E494988091B414502DA07B0BDE879
:100E4000F08F2878802802DD4FF0010B5AE02878D7
:100E50000D2806D108EB04001FFA80F856466D1CD9
:100E600020E00C2C01D0102C0FD128788DE89100B7
:100E70004A4641463046069BFFF7A1FC204604EB5C
:100E8000D07106EB61018EB20CE0102128788DE85C
:100E900083004A4641463046069BFFF790FC06F128
:100EA000080086B26D1C2DE040480088001BB0424F
:100EB00004DB3E484088001B404500DABEE74FF0A7
:100EC000000B202C08D1CDE900574A464146304658
:100ED000069BFFF70CFF12E0182C08D1CDE9005754
:100EE0004A4641463046069BFFF77BFE07E0CDE9C8
:100EF00000574A4641463046069BFFF7F4FDAD1CBD
:100F0000301986B22878002888D100BF96E72DE9ED
:100F1000FF4F83B004460F469046DDE9119A109DBD
:100F2000284601F07CFB86B220490988A1EBC60067
:100F300000EBD071C1F34F0B04EB0B0188B28DE8CD
:100F4000200642463946069BFFF75BFF07B0BDE827
:100F5000F08F2DE9F04706460F46154607F12700AA
:100F600083B206F1270082B23946304600F0F5F828
:100F700000240AE015F8149005EB440090F8018075
:100F800049EA082000F0C4F8641CB4F5C86FF1DB2E
:100F900006484088401E83B204480088401E82B242
:100FA0000021084600F0D9F8BDE8F0873C00002099
:100FB0000021082117E010F0800F04D04FF4004208
:100FC000FE4B1A6004E04FF40042FC4B1B1D1A60FC
:100FD0004FF40052F94B1B1D1A601B1F1A6042068A
:100FE000100E4A1ED1B20029E5DC7047024600BF50
:100FF000108910F0020FFBD0918100BF108910F012
:10100000010FFBD09089C0B2704702884FF6C773BA
:101010001A400280012902D10288028003E002887E
:1010200042F020020280028842F0400202807047B3
:1010300000B587B00121092000F0F0FD4FF42040F9
:10104000ADF8040003208DF8060018208DF8070085
:1010500001A9DA48103800F02BFB41F20300ADF88B
:10106000040003208DF8060010208DF8070001A968
:10107000D248103800F01CFB0121880300F0DBFD92
:101080000020ADF808004FF48270ADF80A0000208F
:10109000ADF80C000220ADF80E000120ADF81000F4
:1010A0004002ADF812000020ADF81400ADF81600B3
:1010B0000720ADF8180002A9C14801F041F801214C
:1010C000BF4801F0E2F807B000BD10B504464FF488
:1010D0008050BA49091D086002200860E0B2FFF79D
:1010E00067FF4FF48050B549086010BD10B5044645
:1010F0004FF48050B149091D08600220091F0860A3
:101100002046FFF755FF4FF48050AC49086010BDF2
:1011100010B504464FF48050A849091D086002200C
:10112000091F08602012FFF743FFE0B2FFF740FFFE
:101130004FF48050A149086010BD30B505460C46FB
:101140002846FFF7C2FFE0B2FFF7D0FF30BD00B581
:101150009C490889FFF7B9FF00BDF0B504460D466C
:1011600016461F4697494889FFF7AFFF2012FFF741
:10117000BDFFA11CC8B2FFF7B9FF3012FFF7B6FFE1
:10118000B11CC8B2FFF7B2FF8E498889FFF79DFFF7
:101190002812FFF7ABFFE91CC8B2FFF7A7FF381210
:1011A000FFF7A4FFF91CC8B2FFF7A0FFFFF7CFFFBE
:1011B000F0BD30B504460D462B4622462946204652
:1011C000FFF7CBFF30BD30B504460D46294620461B
:1011D000FFF7EFFF7C480088FFF79AFF30BD08B5A6
:1011E0000121082000F01AFD4BF20300ADF80000C9
:1011F00003208DF8020010208DF8030069466F4827
:10120000103800F055FA08BD10B50120FFF75DFF5A
:10121000642001F031F90120FFF757FF322001F07F
:101220002BF910BD00B52C2066490881002088717B
:101230008020088048802A2048812B208881C8216E
:101240003620FFF77AFF00BD10B5FFF7C8FFFFF7A4
:10125000DBFF1120FFF739FF782001F00DF9B120F5
:10126000FFF733FF0120FFF741FF2C20FFF73EFF80
:101270002D20FFF73BFFB220FFF727FF0120FFF7EC
:1012800035FF2C20FFF732FF2D20FFF72FFFB32073
:10129000FFF71BFF0120FFF729FF2C20FFF726FF98
:1012A0002D20FFF723FF0120FFF720FF2C20FFF761
:1012B0001DFF2D20FFF71AFFB420FFF706FF0720C0
:1012C000FFF714FFC020FFF700FFA220FFF70EFF7B
:1012D0000220FFF70BFF8420FFF708FFC120FFF774
:1012E000F4FEC520FFF702FFC220FFF7EEFE0A2042
:1012F000FFF7FCFE0020FFF7F9FEC320FFF7E5FE35
:101300008A20FFF7F3FE2A20FFF7F0FEC420FFF744
:10131000DCFE8A20FFF7EAFEEE20FFF7E7FEC5209D
:10132000FFF7D3FE0E20FFF7E1FE3620FFF7CDFEDC
:10133000C820FFF7DBFEE020FFF7C7FE0F20FFF716
:10134000D5FE1A20FFF7D2FE0F20FFF7CFFE1820A0
:10135000FFF7CCFE2F20FFF7C9FE2820FFF7C6FEBF
:101360002020FFF7C3FE2220FFF7C0FE1F20FFF75B
:10137000BDFE1B20FFF7BAFE2320FFF7B7FE372084
:10138000FFF7B4FE0020FFF7B1FE0720FFF7AEFE27
:101390000220FFF7ABFE1020FFF7A8FEE120FFF7C9
:1013A00094FE0F20FFF7A2FE1B20FFF79FFE0F20E9
:1013B000FFF79CFE1720FFF799FE07E0100C014095
:1013C000003800403C000020140000203320FFF7CC
:1013D0008DFE2C20FFF78AFE2920FFF787FE2E20A6
:1013E000FFF784FE3020FFF781FE3020FFF77EFEFE
:1013F0003920FFF77BFE3F20FFF778FE0020FFF744
:1014000075FE0720FFF772FE0320FFF76FFE102026
:10141000FFF76CFE2A20FFF758FE0020FFF766FE5C
:101420000020FFF763FE0020FFF760FE7F20FFF73C
:101430005DFE2B20FFF749FE0020FFF757FE00203E
:10144000FFF754FE0020FFF751FE9F20FFF74EFEEE
:10145000F020FFF73AFE0120FFF748FEF620FFF7E5
:1014600034FE0020FFF742FE3A20FFF72EFE052053
:10147000FFF73CFE2920FFF728FEFFF7D3FE0120EF
:101480001249086010BD70B5064611484088401EDC
:1014900083B20F480088401E82B200210846FFF741
:1014A0005CFE00240CE0002504E03046FFF730FE2F
:1014B000681C85B206484088A842F6DC601C84B2ED
:1014C00003480088A042EEDC70BD0000100C014013
:1014D0003C0000200948804709480047FEE7FEE736
:1014E000FEE7FEE7FEE7FEE7FEE7FEE7FEE7FEE7D4
:1014F00004480549054A064B7047000009040008E6
:10150000ED00000878010020780700207803002013
:101510007803002031490143314A1160704770B5AA
:10152000002100230F22C4780CB32D4C246804F44E
:10153000E064C4F5E064210AC1F10403CA404478C0
:1015400004FA03F18478144021430901254C0678FC
:10155000A155047804F01F050124AC4005786D11F5
:101560004FF0E02606EB8505C5F8004109E0047858
:1015700004F01F050124AC401B4D0678761145F898
:10158000264070BD194A0A400243154B1B1F1A60C2
:10159000704739B1124A121D12680243104B1B1DCD
:1015A0001A6006E00E4A121D126882430C4B1B1D86
:1015B0001A607047042808D14FF0E021096941F012
:1015C00004014FF0E022116107E04FF0E0210969CA
:1015D00021F004014FF0E022116170470000FA058C
:1015E0000CED00E000E400E080E100E080FFFF1F80
:1015F00010B50446CA48844208D10121042000F0F5
:1016000027FB0021042000F023FB46E0C54884426C
:1016100008D10121082000F01BFB0021082000F068
:1016200017FB3AE0C048844208D10121102000F0A5
:101630000FFB0021102000F00BFB2EE0BB48844282
:1016400008D10121202000F003FB0021202000F020
:10165000FFFA22E0B648844208D10121402000F080
:10166000F7FA0021402000F0F3FA16E0B148844276
:1016700008D10121802000F0EBFA0021802000F049
:10168000E7FA0AE0AC48844207D10121801500F056
:10169000DFFA0021A01500F0DBFA10BD10B5012122
:1016A000084600F0D5FA0021012000F0D1FA10BD63
:1016B0002DE9F041024600250026002000230024E9
:1016C000002791F803C00CF00F0591F803C01CF03F
:1016D000100F03D091F802C04CEA050591F800C044
:1016E000BCF1000F31D0146800202BE04FF0010C4A
:1016F0000CFA00F3B1F800C00CEA03069E4220D1B8
:1017000083004FF00F0C0CFA03F7BC4305FA03FCFF
:101710004CEA040491F803C0BCF1280F06D14FF045
:10172000010C0CFA00FCC2F814C00AE091F803C0E6
:10173000BCF1480F05D14FF0010C0CFA00FCC2F8C7
:1017400010C0401C0828D1D31460B1F800C0BCF10F
:10175000FF0F34DD546800202EE000F1080C4FF03C
:10176000010808FA0CF3B1F800C00CEA03069E4227
:1017700021D183004FF00F0C0CFA03F7BC4305FA9C
:1017800003FC4CEA040491F803C0BCF1280F05D116
:1017900000F1080C08FA0CF8C2F8148091F803C0A4
:1017A000BCF1480F07D100F1080C4FF0010808FA0E
:1017B0000CF8C2F81080401C0828CED35460BDE855
:1017C000F0814FF6FF710180022181700421C17008
:1017D00070470246002093680B4201D0012000E0D0
:1017E000002070470146886880B27047024600209A
:1017F000D3680B4201D0012000E000207047014671
:10180000C86880B2704701617047416170470AB192
:10181000016100E041617047C16070474FF4803260
:101820000A438261816182618269826970470246EE
:101830000020424B18684FF68073184040EA0210AF
:1018400008433E4B186070473D49C8617047F0B58A
:101850000A46002300240021002500F00046B6F1CE
:10186000004F02D1354EF16901E0344E7168C0F38A
:10187000034583B200F44016B6F5401F08D121F0AD
:1018800070612E4E766826F070662C4F7E6012E0F6
:1018900000F48016B6F5801F06D1032606FA05F47B
:1018A000A14341F0706106E0460D360103FA06F6E9
:1018B000B14341F0706122B1460D360103FA06F6DC
:1018C000314300F00046B6F1004F02D11B4EF161EA
:1018D00001E01A4E7160F0BD30B500228B071C0F7D
:1018E0000F2303FA04F2154B08338C1053F82430FD
:1018F0009343124C08348D1044F8253023468C1045
:1019000053F824308C07240F00FA04F423430B4CC3
:1019100008348D1044F8253030BD0A4908607047FE
:1019200000080140000C014000100140001401407B
:1019300000180140001C014000200140000001404F
:1019400000002042DC002042DD48006840F0010039
:10195000DB49086008464068DA490840D8494860D1
:1019600008460068D8490840D5490860084600681C
:1019700020F4802008600846406820F4FE0048609B
:101980004FF41F0088607047CD49096821F4803109
:10199000CB4A11601146096821F480211160B0F52D
:1019A000803F03D0B0F5802F0ED106E0C44909680E
:1019B00041F48031C24A116007E0C149096841F42D
:1019C000A021BF4A116000E000BF00BF704710B502
:1019D00001460022002300204A11012A02D1B84CFE
:1019E000236806E0022A02D1B54C236A01E0B44C18
:1019F000636A01F01F02012494401C4201D00120BF
:101A000000E0002010BD38B5002000900024002523
:101A100000BF3120FFF7DBFF05460098401C009017
:101A20000098B0F5A06F01D0002DF2D03120FFF763
:101A3000CEFF08B1012400E00024204638BD014655
:101A400000209F4A106820F0F80040EAC1001060B2
:101A500070479E490860704702460020984B5868BE
:101A600020F47C1042EA01031843954B58607047FC
:101A700096490866704701460020914A506820F058
:101A800003000843506070478D48406800F00C0028
:101A90007047014600208A4A506820F0F000084351
:101AA0005060704701460020854A506820F4E0608D
:101AB00008435060704701460020814A506820F476
:101AC000605040EAC1005060704729B17C4A527AA8
:101AD00002437B4B5A7204E0794A527A8243784B34
:101AE0005A7270477A490860704701460020744A6C
:101AF000506820F440400843506070470021754A08
:101B000011706F4A82F82010012802D0042808D1F1
:101B100003E001216F4A117004E005216D4A117044
:101B200000E000BF00BF70476B4908607047644920
:101B3000096A0143624A1162704767494439086083
:101B4000704730B500210022002400235C4D6D68F1
:101B500005F00C0121B1042905D0082923D105E0A5
:101B60005E4D056022E05D4D05601FE0544D6D68DF
:101B700005F47012524D6D6805F48034022505EBB2
:101B800092421CB9564D554305600BE04C4D6D68B3
:101B900015F4003F03D0524D5543056002E04F4D10
:101BA0005543056002E04D4D056000BF00BF444D48
:101BB0006D6805F0F00109094A4D6B5C0568DD4070
:101BC00045603F4D6D6805F4E061090A454D6B5C69
:101BD0004568DD4085603A4D6D6805F46051C90A7D
:101BE000404D6B5C4568DD40C560354D6D6805F462
:101BF0004041890B3C4D6B5CC568B5FBF3F5056155
:101C000030BD29B12E4A526902432D4B5A6104E07E
:101C10002B4A526982432A4B5A61704729B1284A9C
:101C200092690243264B9A6104E0254A92698243F5
:101C3000234B9A61704729B1214AD2690243204B54
:101C4000DA6104E01E4AD26982431D4BDA617047B3
:101C500029B11B4AD2680243194BDA6004E0184AE2
:101C6000D2688243164BDA60704729B1144A126970
:101C70000243134B1A6104E0114A12698243104B6C
:101C80001A61704714494039086070470F49C864A9
:101C900070470B49C87170470948406A40F080702E
:101CA00007494862704701460020054A92680A4287
:101CB00001D0012000E00020704701498872704780
:101CC000001002400000FFF8FFFFF6FE0000424255
:101CD000D8004242201002408004424200127A00A2
:101CE00000093D001A0000202A00002010B504461B
:101CF000FB48844209D101218803FFF7A9FF002195
:101D00004FF48040FFF7A4FF32E0F648844209D147
:101D100001214804FFF7A9FF00214FF40030FFF72D
:101D2000A4FF25E0F048844209D101218804FFF78F
:101D30009CFF00214FF48020FFF797FF18E0EB484D
:101D4000844209D10121C804FFF78FFF00214FF41D
:101D50000020FFF78AFF0BE0E548844208D101210B
:101D60000805FFF782FF00214FF48010FFF77DFF89
:101D700010BD2DE9F04786B005460E460024A24668
:101D800000BFA1460027B08900B100BF2F462C8AB2
:101D90004CF6FF700440F08804432C82AC894EF668
:101DA000F3100440B0883189084371890843044323
:101DB000AC81AC8A4FF6FF400440B0890443AC824A
:101DC00001A8FFF7BEFEC648874202D1DDF810A089
:101DD00001E0DDF80CA0A88910F4004F08D00AEB50
:101DE000CA0000EB0A1031684900B0FBF1F807E0C7
:101DF0000AEBCA0000EB0A1031688900B0FBF1F869
:101E00006420B8FBF0F004012009642101FB108973
:101E1000A88910F4004F08D0322000EBC900B0FBB5
:101E2000F1F000F00700044308E0322000EB091055
:101E30006421B0FBF1F000F00F0004432C8106B0E8
:101E4000BDE8F0874FF41651016000218180C18008
:101E500001810C21418100218181704710B502462A
:101E60000020108A4FF2FF0318400B884C88234350
:101E70008C882343CC8823431843108210BD002153
:101E8000018041808180C180704721B1828942F404
:101E90000052828104E082894DF6FF731A408281EC
:101EA0007047F0B503460024002600250020A1F568
:101EB00010676A3F00D100BF1846C1F3421401F019
:101EC0001F06012707FA06F5012C01D10C3004E0AA
:101ED000022C01D1103000E014301AB107682F43F2
:101EE000076002E00768AF430760F0BD1AB1838A5C
:101EF0000B43838202E0838A8B4383827047028A8A
:101F00004FF6F0731A400282028A0A430282704737
:101F100082894FF2FF731A40828182890A4382814B
:101F2000704721B1828942F00202828104E08289F5
:101F30004FF6FD731A4082817047028A4FF6DF73B5
:101F40001A400282028A0A430282704721B1028A41
:101F500042F48042028204E0028A4BF6FF731A4088
:101F600002827047C1F30802828070470146888868
:101F7000C0F308007047818941F0010181817047F9
:101F8000028BD2B20283028B42EA012202837047A3
:101F9000028B02F47F420283028B0A430283704762
:101FA00021B1828A42F02002828204E0828A4FF6C6
:101FB000DF731A408282704721B1828A42F0100298
:101FC000828204E0828A4FF6EF731A408282704761
:101FD00021B1828A42F00802828204E0828A4FF6AE
:101FE000F7731A408282704721B1828942F400421D
:101FF000828103E08289C2F30E028281704721B19F
:10200000828A42F40062828204E0828A4FF2FF7385
:102010001A4082827047828A4FF6FB731A4082828E
:10202000828A0A438282704721B1828A42F0020288
:10203000828204E0828A4FF6FD731A4082827047E2
:1020400002460020B1F5007F00D100BF13880B428B
:1020500001D0012000E00020704701F40072B2F5C9
:10206000007F00D100BFCA430280704770B50246AE
:102070000024002300250020A1F510666A3E00D14F
:1020800000BFC1F3421501F01F03012606FA03F356
:10209000012D02D19689334006E0022D02D1168A25
:1020A000334001E0968A33400C12012606FA04F40C
:1020B0001688344013B10CB1012000E0002070BD3F
:1020C00010B500220023A1F510646A3C00D100BFC6
:1020D0000A1201249440A3B2DC43048010BD000026
:1020E000003801400044004000480040004C0040DF
:1020F0000050004010B50446BE48844208D101217A
:102100008014FFF7A5FD0021A014FFF7A1FD16E044
:10211000B948844208D101210014FFF7A6FD00212F
:102120002014FFF7A2FD0AE0B448844207D1012140
:10213000C013FFF79AFD0021E013FFF796FD10BDD5
:1021400010B50022028802F441520B884C882343C8
:102150008C882343CC8823430C8923434C89234315
:102160008C892343CC8923431A430280838B4FF20B
:10217000FF74234083830B8A038210BD2DE9F04F47
:1021800085B005460C464FF0000902274FF00008C5
:102190004FF0010B0026B246A88B4FF240010840D9
:1021A000A88302202884B5F81C90A068022801D1D9
:1021B00000BF38E0A08810B94FF0010B01E04FF0EC
:1021C000020B8D48854200D100E000BF6846FFF752
:1021D000B8FCDDF800A0E088B0F5007F0AD14FEA36
:1021E0001A2000EB80004000A168B0FBF1F0401D18
:1021F00086B20BE04FEA4B10BAFBF0F000EB800028
:102200004000A168B0FBF1F0401D86B20A20B6FB89
:10221000F0F606F00108A6EB0800C0F34F074FF6F2
:10222000FF7000EA0828022F01DBFF2F02DD0227E2
:102230004FF00008E08840EA080038432884A0886E
:10224000A1890843618808432188084340F400605D
:1022500040EA0909A5F81C9005B0BDE8F08F0021FF
:10226000018041808180C180018141818181C18162
:102270000721018270470021018041808180C18057
:102280000221816000218181704721B1028842F0E2
:102290004002028004E002884FF6BF731A400280B9
:1022A000704721B1828B42F48062828304E0828B8A
:1022B0004FF6FF331A408283704730B50024002365
:1022C0000C110125A540ABB21AB185881D4385804C
:1022D00002E085889D43858030BD1AB183880B4319
:1022E000838002E083888B438380704781817047BD
:1022F000014688897047A1F57E42FF3A04D00288E2
:1023000042F48072028004E002884FF6FF631A40B4
:102310000280704721B1828842F00402828004E08A
:1023200082884FF6FB731A408280704702884FF212
:10233000FF731A40028002880A43028070470188B6
:1023400041F480510180704721B1028842F400526B
:10235000028004E002884DF6FF731A400280704745
:1023600002460020012901D0108B00E0908A7047BE
:102370000146088A7047B1F5804F04D1028842F4C3
:102380008042028004E002884BF6FF731A4002800C
:1023900070470246002013890B4201D0012000E063
:1023A00000207047CA4302817047F0B50246002002
:1023B00000240023002501F00F070126BE40B4B21F
:1023C0000B1101269E40B3B2968806EA03051689D2
:1023D000264202D00DB1012000E00020F0BD10B572
:1023E000002201F00F040123A3409AB2D3430381DA
:1023F00010BD00000030014000380040003C0040AB
:1024000010B56FF00400FFF7D5F82D4800682D498E
:10241000B0FBF1F02C4908700846007800EB400151
:10242000C1EBC0104FF6FF7101EAC00027490880D8
:1024300010BD0146244A12784A434FF0E0235A6106
:1024400000229A611A46126942F001021A6100BF25
:102450004FF0E022106910F0010F02D010F4803F1D
:10246000F6D04FF0E022126922F001024FF0E02393
:102470001A6100229A6170470146144A12884A4341
:102480004FF0E0235A6100229A611A46126942F025
:1024900001021A6100BF4FF0E022106910F0010F35
:1024A00002D010F4803FF6D04FF0E022126922F003
:1024B00001024FF0E0231A6100229A617047000088
:1024C0000000002000127A002E00002030000020C2
:1024D00010B54FF4A060FFF71DF810BD014600BF16
:1024E000704700BF494A128812F0400FFAD0C2B2BA
:1024F000464B1B1D1A80704710B586B0044601215B
:1025000044F20400FFF78AFB4FF40070ADF81400AA
:1025100003208DF8160018208DF8170005A93C48F7
:10252000FFF7C6F84FF48060ADF8140004208DF872
:10253000170005A93648FFF7BBF825208DF80000E5
:1025400003208DF801008DF8020001208DF80300B2
:102550006846FEF7E4FF01940020ADF80800ADF8EE
:102560000A00ADF80C00ADF810000C20ADF80E001C
:1025700001A92648FFF7FDFB012240F2255123481F
:10258000FFF78FFC01212148FFF77FFC06B010BD4B
:1025900010B540F225511D48FFF768FD10B31B48E8
:1025A000FFF7E4FCC4B21B48008810F4004F2BD1A5
:1025B0001848008810F4804F0CD00A2C03D000205B
:1025C0001449088020E01348008840F40040114975
:1025D000088019E00D2C06D10E48008840F4804098
:1025E0000C49088010E00B480088C0F30D000A4930
:1025F0000C5408480088401C06490880084600889A
:10260000C72801DD0020088010BD0000003801400F
:1026100000080140340000204A000020704710B537
:10262000431C02E010F8011B71B18107FAD14FF091
:10263000013202C88C1A8C4314EAC211F9D0C01AB4
:102640000A0603D0C01E10BDC01A10BD0A0401D076
:10265000801E10BD0902FCD0401E10BD704770479F
:1026600070477047754600F029F8AE460500694688
:10267000534620F00700854618B020B5FEF738FF16
:10268000BDE820404FF000064FF000074FF0000873
:102690004FF0000B21F00701AC46ACE8C009ACE8F4
:1026A000C009ACE8C009ACE8C0098D4670470446D3
:1026B000AFF300802046FDF760FD00000048704742
:1026C00014010020000000000000000000000000D5
:1026D00000000404040404040004000000140A0AB6
:1026E0000000000000000000000014143F140A3F26
:1026F0000A0A000000041E1505060C14150F04003C
:10270000000012150D0A142C2A1200000000040A01
:102710000A1E151509360000000202010000000023
:102720000000000000201008080808080810200019
:102730000002040808080808080402000000000459
:10274000150E0E150400000000000404041F04040C
:102750000400000000000000000000000002020170
:1027600000000000001F000000000000000000004A
:102770000000000000020000001008080804040225
:102780000202010000000E1111111111110E0000C2
:102790000000040604040404040E000000000E11EE
:1027A00011080402011F000000000E11100C10108F
:1027B000110E00000000080C0A0A091E081800008B
:1027C00000001F01010F1010110E000000000E0983
:1027D000010F1111110E000000001F09080404046C
:1027E0000404000000000E11110E1111110E000062
:1027F00000000E1111111E10120E0000000000004A
:1028000004000000000400000000000000040000BC
:102810000004040000201008040204081020000036
:10282000000000001F00001F00000000000204085C
:10283000102010080402000000000E11110804040A
:102840000004000000000E111915151D011E0000E6
:10285000000004040C0A0A1E1233000000000F12CC
:10286000120E1212120F000000001E1101010101D0
:10287000110E000000000F1212121212120F0000AF
:1028800000001F120A0E0A02121F000000001F1291
:102890000A0E0A020207000000001C120101391191
:1028A000120C000000003312121E1212123300002C
:1028B00000001F0404040404041F000000003E087C
:1028C0000808080808090700000037120A060A0A63
:1028D000123700000000070202020202223F00003D
:1028E00000001B1B1B1B15151515000000003B12DB
:1028F00016161A1A1217000000000E1111111111EC
:10290000110E000000000F12120E0202020700005A
:1029100000000E1111111117190E180000000F12EE
:10292000120E0A121237000000001E1101060810D4
:10293000110F000000001F1504040404040E000021
:102940000000331212121212120C00000000331297
:10295000120A0A0C0404000000001515150E0A0ADC
:102960000A0A000000001B0A0A04040A0A1B0000ED
:1029700000001B0A0A040404040E000000001F09E2
:1029800008040402121F0000001C040404040404D0
:1029900004041C00000202020404080808100000DD
:1029A000000E08080808080808080E0000040A00BD
:1029B0000000000000000000000000000000000017
:1029C0000000003F000400000000000000000000C4
:1029D00000000000000C121C123C0000000003026A
:1029E000020E1212120E000000000000001C120263
:1029F000021C000000001810101C1212123C0000F3
:102A000000000000000C121E021C00000000380430
:102A1000041E0404041E000000000000003C120C10
:102A2000021E221C00000302020E121212370000C6
:102A30000000040000060404040E0000000008006A
:102A4000000C08080808080700000302023A0A0EF2
:102A5000123700000000070404040404041F0000EF
:102A600000000000000F1515151500000000000003
:102A7000000F12121237000000000000000C1212AA
:102A8000120C000000000000000F1212120E0207CC
:102A900000000000001C1212121C10380000000080
:102AA000001B06020207000000000000001E020CCE
:102AB000101E000000000004040E040404180000AE
:102AC00000000000001B1212123C00000000000079
:102AD0000037120A0C040000000000000015150E5B
:102AE0000A0A000000000000001B0A040A1B000084
:102AF000000000000037120A0C040403000000006C
:102B0000001E0804041E0000001808080804080835
:102B1000080818000808080808080808080808082D
:102B20000006040404080404040406000225180036
:102B30000000000000000000000000000000000095
:102B4000000000000000000000000008080808085D
:102B5000080800001818000000486C24120000004B
:102B600000000000000000000000002424247F1268
:102B700012127F12121200000000081C2A2A0A0CEE
:102B80001828282A2A1C08080000002225151515D7
:102B90002A585454542200000000000C1212120A49
:102BA00076252911916E000000060604030000003E
:102BB000000000000000000000402010100808087D
:102BC0000808081010204000000204080810101027
:102BD00010101008080402000000000008086B1C18
:102BE0001C6B08080000000000000000080808082E
:102BF0007F08080808000000000000000000000036
:102C000000000000060604030000000000000000B1
:102C1000FE000000000000000000000000000000B6
:102C20000000000006060000000080404020201048
:102C30001008080404020200000000182442424266
:102C40004242424224180000000000080E08080812
:102C500008080808083E00000000003C42424220EC
:102C600020100804427E00000000003C4242201870
:102C700020404042221C0000000000203028242474
:102C800022227E20207800000000007E0202021A2C
:102C900026404042221C0000000000382402021A94
:102CA00026424242241800000000007E222210101A
:102CB00008080808080800000000003C42424224BE
:102CC00018244242423C00000000001824424242C4
:102CD00064584040241C0000000000000000181848
:102CE00000000000181800000000000000000008AC
:102CF0000000000000080804000000402010080444
:102D000002040810204000000000000000007F00C6
:102D100000007F00000000000000000204081020F6
:102D200040201008040200000000003C42424640DF
:102D300020101000181800000000001C225A5555E1
:102D400055552D42221C00000000000808181414DC
:102D5000243C224242E700000000001F2222221EE3
:102D600022424242221F00000000007C4242010138
:102D700001010142221C00000000001F22424242C9
:102D800042424242221F00000000003F4212121E37
:102D900012120242423F00000000003F4212121E87
:102DA00012120202020700000000003C2222010170
:102DB00001712122221C0000000000E74242424231
:102DC0007E42424242E700000000003E0808080838
:102DD00008080808083E00000000007C10101010D1
:102DE000101010101010110F0000007722120A0EA0
:102DF0000A121222227700000000000702020202DB
:102E000002020202427F00000000007736363636AA
:102E10002A2A2A2A2A6B0000000000E346464A4A72
:102E200052525262624700000000001C22414141A0
:102E300041414141221C00000000003F4242424209
:102E40003E020202020700000000001C2241414134
:102E500041414D53321C60000000003F4242423E5F
:102E60001212222242C700000000007C42420204EB
:102E700018204042423E00000000007F4908080838
:102E800008080808081C0000000000E7424242420F
:102E900042424242423C0000000000E742422224FB
:102EA00024141418080800000000006B494949491F
:102EB0005555362222220000000000E74224241843
:102EC0001818242442E7000000000077222214147E
:102ED00008080808081C00000000007E21201010CF
:102EE00008040442423F0000007808080808080867
:102EF000080808080808780000000202040408080E
:102F00000810102020204040001E1010101010103B
:102F10001010101010101E000038440000000000B7
:102F200000000000000000000000000000000000A1
:102F300000000000000000FF000608000000000084
:102F40000000000000000000000000000000003C45
:102F50004278444242FC0000000000030202021AD0
:102F600026424242261A00000000000000000038FD
:102F700044020202443800000000006040404078F3
:102F80004442424264D80000000000000000003CBF
:102F9000427E0202423C0000000000F08808087EE9
:102FA00008080808083E0000000000000000007C3F
:102FB00022221C023C42423C000000030202023A70
:102FC0004642424242E700000000000C0C00000EA6
:102FD00008080808083E00000000003030000038F3
:102FE000202020202020221E000000030202027266
:102FF000120A1612227700000000000E08080808C6
:1030000008080808083E0000000000000000007FDB
:103010009292929292B70000000000000000003BE4
:103020004642424242E70000000000000000003C2F
:1030300042424242423C0000000000000000001BEF
:1030400026424242221E02070000000000000078D3
:1030500044424242447840E0000000000000007713
:103060004C040404041F0000000000000000007C69
:1030700042023C40423E0000000000000008083EC2
:103080000808080808300000000000000000006385
:103090004242424262DC000000000000000000E703
:1030A000422424140808000000000000000000EB87
:1030B000494955552222000000000000000000761A
:1030C00024181818246E000000000000000000E71B
:1030D0004224241418080807000000000000007EA5
:1030E00022100808447E000000C02020202020106C
:1030F000202020202020C0001010101010101010D0
:103100001010101010101010000608080808081001
:1031100008080808080806000C32C2000000000079
:1031200000000000000000000000000000001FE0A0
:103130001FC06FD077B0703070307030703070302A
:1031400070302010703070307030703070307030EF
:1031500067D06FE01FE01FE00000000000003800B3
:10316000780036002E000E000E000E000E000E003D
:103170000400000004000E000E000E000E000E0001
:103180000E000E000E0004000000000000003FF0E2
:103190007FE07FE03FD00030003000300030003072
:1031A0001FD01FE02FE077E070007000700060001B
:1031B0006FF05FF03FF03FF00000000000003FF0D4
:1031C0007FF07FE03FD00030003000300030003032
:1031D0003FB07FD07FD03FB00030003000300030B3
:1031E0003FD07FE07FF03FF00000000000002010A3
:1031F00070307030703070307030703070307030CF
:1032000037B00FD00FD007B00030003000300030A2
:1032100000300030003000100000000000001FF0FF
:103220005FF06FF077F070007000700070003F800A
:103230001FC01FC00FB00030003000300030003021
:103240003FD07FD07FE03FE00000000000001FF093
:103250001FF06FF077F07000700070007000700069
:1032600077C02FC06FD077B0703070307030703052
:1032700067D06FE01FE01FE00000000000003FE0AB
:103280007FE07FD03F9000300030003000300030D1
:1032900000300010001000300030003000300030EE
:1032A00000300030003000100000000000001FE07F
:1032B0001FC06FD077B070307030703070307030A9
:1032C00077B02FD06FF077B07030703070307030D2
:1032D00067D06FE01FE01FC00000000000001FE08B
:1032E0001FC06FD077B07030703070307030703079
:1032F0006FB00FD00FF00FB0003000300030003052
:103300003FD07FE07FE03FC00000000000000000F1
:1033100000000000000000006000600020000000CD
:1033200000000000000000002000600060000000BD
:10333000000000000000000000000000000000008D
:10334000000000000000000000000000000000007D
:103350000000000000000000000000003C003C00F5
:103360003C00000000000000CFB50000000C3FF85A
:10337000030006380C701FC0038C0E0C3FFE0DB608
:103380000D98199C318C31866786CDB30000000002
:1033900018301BFF306036CC6CCC7D8619FE18DBF4
:1033A00030D87FD870DB019B1F9B771FBCE00000EB
:1033B000000006C036FF36C0378037B03718060C1D
:1033C00000003FFE36663666366636667FFFBFD83B
:1033D000000000003060306037FF7EFB379E338C8A
:1033E0003F06380031FC70603060306030607FFF35
:1033F000A1E6C00023E82C18D808100830003000DF
:103400003000300030003000100018080C1003E0CD
:103410000000CEC20000000000001000000C7FF091
:10342000044020044020014020027FE0624020321E
:103430004020124020047FE004000005001004FF3B
:10344000F8088910788910188910188910188910BF
:103450001889101889160776E8000000CAAA00002B
:1034600000000000100010087FF80C6010046010CD
:10347000016010427FF03260101A6010127FF00479
:10348000690004088005088C08888C18C89838489A
:10349000901868A01048C010088030088010088C70
:1034A00003F770000000B6C800000000100000081C
:1034B00000000C080FFFFC0840000830C0082088FE
:1034C00008209C0FFFE0082080082080083F80082B
:1034D000000019FFE01820C0102080101180100B90
:1034E00000200600201B804060FE4780180000007E
:1034F000B5E70000000000000018000010000010F8
:10350000000010000FFFF008102008102008102005
:103510000810200FFFE008102008102008102008D5
:1035200010200FFFE0081000001008001008001025
:103530000400180C000FF8000000D1B900000000D2
:1035400000000000180FFFFC0C00000C0C000C0C1D
:10355000000C0C000C0C000C0C000C0C000DFFF00F
:103560000C0C000C0C00080C80080C40080C6008C7
:103570000C30100C20100C00200C0C27F3F0400035
:1035800000000000C1F7000000000800000600086D
:10359000020804FFFC06040000040001084041107A
:1035A00020312030127FD012001004646004644087
:1035B0000464400864407864401844401844441847
:1035C000C44418844419047E060400000000A1E6E7
:1035D0000000000000000000000C0000121F80121C
:1035E00030681260180CC018008008018008018043
:1035F0000001800001800001800001800000800047
:1036000000C00000C0100060200038C0000F0000A3
:103610000000000000000000A3BA0000000000004D
:10362000000000000000000000000000000000009A
:10363000000000000000000000000000000000008A
:10364000001C00001C00000C000000000000000036
:103650000C00001C00001C00000000000000000026
:103660000000A3A500000000000000000000000012
:103670000700180880300880600880C00881800832
:1036800081000882000504000208000011E000210A
:1036900010004110008310010310020110040110FA
:1036A0000800E0000000000000000000A3D60000B9
:1036B000000000000000000000000FC1F003004007
:1036C00003004001008001808001810000C10000F2
:1036D000C3000062000062000024000034000018F3
:1036E00000001800001800000000000000000000AA
:1036F000000000000000A3C1000000000000000066
:1037000000000000000000000800001800001C007D
:10371000002C0000240000660000460000C30000EA
:10372000830000FF000101800101800200C002004F
:10373000C00F83F000000000000000000000000047
:10374000D7D60000000000060000000300000000C3
:10375000C0000001C0C0000107C00001FF00021F3F
:10376000FE0007F01C0007C070000F00E0000E0311
:10377000F0001C0FF0003C0F70003C00E00018004F
:10378000C0000000C0000000C00000006000000099
:103790002000000037000001FF00007FF80007F85C
:1037A00030001F8030000080300000C0300000601A
:1037B00060000018E000000FC000000600000000DC
:1037C00000000000E4370008000000203C0000007A
:1037D00028010008203800083C0000203C070000B9
:1037E0004401000800A24A0400000000000000009C
:1037F00001020304060708090000FFFF00000000A3
:103800000000010203040102030406070809020480
:10381000060800000000000000000000000000009A
:04000005080000ED02
:00000001FF
