:03000000020605F0
:0C060500787FE4F6D8FD75810702064CF2
:07086B004C55583D000A0046
:070863004400110000000039
:10079800438920759850758DF3758BF3E4F587D2EE
:0A07A800AFD2ACD28EC299C2B222C9
:10075200E4FFD2B2EFC39D5018C2AC1201EBF5997F
:100762003099FDC299D2AC740129F9E43AFA0F80AA
:03077200E3C2B22D
:010775002261
:10082600D2B2C2AC8F993099FDC299D2ACC2B22273
:0300230002087759
:03087700C29832F2
:1003830090000012033A000000001208037B017A78
:100393000079111205287BA07A86790178009000F4
:1003A30011E0FCA3E0FDA3E0FEA3E0FF120274EF63
:1003B3002430900015F07BA07A86790178009000B4
:1003C30011E0FCA3E0FDA3E0FEA3E0FF120274AC86
:1003D30000AD01AE02AF0390000012032EE47B10C8
:1003E3007A27F9F8900000E0FCA3E0FDA3E0FEA368
:1003F300E0FF120274EF2430900016F0900000E04A
:10040300FCA3E0FDA3E0FEA3E0FFE47B107A27F961
:10041300F8120274AC00AD01AE02AF0390000012FB
:10042300032EE47BE87A03F9F8900000E0FCA3E0F4
:10043300FDA3E0FEA3E0FF120274EF243090001747
:10044300F0900000E0FCA3E0FDA3E0FEA3E0FFE4E6
:100453007BE87A03F9F8120274AC00AD01AE02AF87
:100463000390000012032EE47B64FAF9F890000075
:10047300E0FCA3E0FDA3E0FEA3E0FF120274EF247F
:1004830030900018F0900000E0FCA3E0FDA3E0FE34
:10049300A3E0FFE47B64FAF9F8120274AC00AD0147
:1004A300AE02AF0390000012032EE47B0AFAF9F8C0
:1004B300900000E0FCA3E0FDA3E0FEA3E0FF120236
:1004C30074EF2430900019F0900000E0FCA3E0FDED
:1004D300A3E0FEA3E0FFE47B0AFAF9F8120274AC8E
:1004E30000AD01AE02AF0390000012032E90000096
:1004F300A3A3A3E0243090001AF07BFF7A08796B62
:100503007D041207527B017A0079157D061207528A
:100513007BFF7A0879707D011207527FE87E031210
:050523000776020390C1
:0508720000000000225F
:10077600EF1FAA0670011E4A60177C037D84D3ED25
:100786009400EC940040E9120872ED1D70F01C8094
:01079600ED75
:01079700223F
:10000300E4FDFCC3ED9FEC9E5015E4FBFA0BBB0033
:0F001300010ABA07F8BBD0F50DBD00010C80E45F
:0100220022BB
:07083600D29212083DC292AC
:08083D00000000000000002291
:0E0845007F207E4EEF1FAC0670011E4C70F639
:010853002282
:0F085400D293D29212083DC29312083DC2922253
:10081500C293D29212083DD29312083DC2920208A9
:010825003D95
:1007F100EF30E004D2938002C293120836D2930202
:02080100083DB0
:1007C900E4FFD29300D29212083DA29333FF12089C
:0407D9003DC292008B
:0107DD0022F9
:07072D00AC071208547F9491
:10073400E4FEEF30E704D2938002C29312083D1224
:0E0744000836EF25E0FF0EEEB408E70207C905
:100691001208547F94120734AF051207341208541C
:0506A1007F95120734F3
:1006A600E4FF00D293FED29212083DA293E4334FA8
:1006B600FFC29212083DEEC394075004EF25E0FFF7
:0606C6000EEEB408E10095
:0106CC00220B
:1007DE0012072DAF04120734AF0512073412081595
:0307EE00020845B9
:0207B200AD0791
:1007B400E4FB120691AB077F011207F11208151230
:0407C4000845AF0332
:0107C800220E
:1007070012072DAF0412069BEF1202047F01120796
:10071700F1120691900001EF1202167F011207F104
:060727001208150208454E
:1006CD00E4FEEF30E6037440FEEF30E604EE444006
:1006DD00FEEF30E304EE4408FEEF30E204EE440496
:1006ED00FEEF30E104EE4402FEEF30E004EE440193
:0A06FD00FEAF06AD077F020207DE24
:100803000000D292D2937F647E00120003E4FF02C1
:0208130006CD10
:0B052800900004EBF0A3EAF0A3E9F060
:10053300E4FDA3F090000BF0A3F0A312033A000034
:1005430000007B017A0079087D047F03120707907E
:100553000008E0FF54F0C4540FFDEF540F90000760
:10056300F0E0C454F0FFF0900009E0540F4F900006
:1005730007F0EDB40104E4FD8008EDD3940E4002CE
:100583007D0EAF0574017E00A807088005C333CE36
:1005930033CED8F9FF90000BEEF0A3EFF0FDAC06DD
:1005A300E4120131C004C005C006C007900007E093
:1005B300FCE4120136D003D002D001D00012002691
:1005C3007BEC7A517938783D12002690000D1203A6
:1005D3002E7F337E337DB37C3F90000DE0F8A3E0A4
:1005E300F9A3E0FAA3E0FB12002612016A900004CB
:1005F300E0FBA3E0FAA3E0F91203147FE87E030211
:020603000003F2
:10002600EC4D6011E8497017ED33EC3304600DE4D4
:10003600FCFFFEFD22E933E8330470F80201D61214
:1000460001A158046009E4CC248150062850090215
:1000560001E02840030201DDC0E0EB4A7044B980AC
:1000660006D0E0FB0201CCEF4E701CBD8008EBFF12
:10007600EAFEE9FD80EBE98DF0A4FEE5F002010F52
:10008600E9CDF9EAFEEBFFEF89F0A4FCE5F0CE89B5
:10009600F0A42EFFE435F0CD89F0A42DFEE435F072
:1000A6008067EF4E7005BD80D780C3EF8BF0A4ACA0
:1000B600F0EE8BF0A42CFCE435F0F8EF8AF0A42CDB
:1000C600E5F038FCE433CB8DF0A42CFCE5F03BF8EE
:1000D600EE8AF0A42CFCE5F038F8E433CF89F0A4DE
:1000E6002CFCE5F038CF3400CE89F0A42FFFE5F0E4
:1000F6003EFEE433C98DF0A42EFEE5F039CD8AF03C
:10010600A42FFFE5F03EFEE43DFD33D0E0FB5007B3
:100116000BBB000F0201E0EC2CFCEF33FFEE33FECD
:06012600ED33FD0201B8FB
:10012C0075F020800E75F010800575F0087D007E4E
:10013C00007F003392D530D503120306EC33401008
:10014C00EF33FFEE33FEED33FDEC33FCD5F0ED2257
:0E015C00E5F0247EA2D513CC92E7CDCEFF2293
:10016A00EDD2E7CD33EC3392D524814006E4FFFE8D
:10017A00FDFC22FCE4CFCECDCC24E0501174FF80EC
:10018A00EDC3CC13CCCD13CDCE13CECF13CF047089
:07019A00F030D5DE02030680
:1001A100E9D2E7C933E833F892D5EDD2E7CD33ECA4
:0701B10033FC5002B2D5221D
:1001B800EC30E7100FBF000C0EBE00080DBD0004A8
:1001C8000BEB6014A2D5EB13FCED92E7FD2274FF54
:1001D800FCFDFEFF22E480F8A2D574FF13FC7D80AD
:0301E800E480EFC1
:10061100020383E493A3F8E493A34003F68001F279
:1006210008DFF48029E493A3F85407240CC8C333EA
:10063100C4540F4420C8834004F456800146F6DFB9
:10064100E4800B0102040810204080900863E47EDE
:10065100019360BCA3FF543F30E509541FFEE493AE
:10066100A360010ECF54C025E060A840B8E493A375
:10067100FAE493A3F8E493A3C8C582C8CAC583CAA0
:10068100F0A3C8C582C8CAC583CADFE9DEE780BE58
:01086A00008D
:1001EB00BB010689828A83E0225002E722BBFE0212
:0901FB00E32289828A83E4932245
:10020400BB010689828A83F0225002F722BBFE01D9
:02021400F322D3
:10021600F8BB010DE58229F582E5833AF583E8F01E
:10022600225006E92582C8F622BBFE05E92582C8CA
:02023600F222B2
:1002380075F008758200EF2FFFEE33FECD33CDCC7D
:1002480033CCC58233C5829BED9AEC99E582984000
:100258000CF582EE9BFEED9AFDEC99FC0FD5F0D6DD
:10026800E4CEFBE4CDFAE4CCF9A88222B800C1B907
:100278000059BA002DEC8BF084CFCECDFCE5F0CB45
:10028800F97818EF2FFFEE33FEED33FDEC33FCEB7E
:1002980033FB10D703994004EB99FB0FD8E5E4F939
:1002A800FA227818EF2FFFEE33FEED33FDEC33FC26
:1002B800C933C910D7059BE99A4007EC9BFCE99A1A
:1002C800F90FD8E0E4C9FAE4CCFB2275F010EF2F5F
:1002D800FFEE33FEED33FDCC33CCC833C810D7075F
:1002E8009BEC9AE899400AED9BFDEC9AFCE899F89A
:0E02F8000FD5F0DAE4CDFBE4CCFAE4C8F9222D
:0E030600C3E49FFFE49EFEE49DFDE49CFC2208
:10031400BB010789828A8302032E5005E9F8020390
:0A0324006BBBFE05E9F80203772227
:0C032E00ECF0A3EDF0A3EEF0A3EFF02242
:10033A00A8828583F0D083D082120351120351120E
:10034A000351120351E473E493A3C583C5F0C58333
:10035A00C8C582C8F0A3C583C5F0C583C8C582C80D
:01036A002270
:0C036B00ECF608EDF608EEF608EFF622BE
:0C037700ECF208EDF208EEF208EFF222C2
:00000001FF
