:020000040800F2
:1000000068070020D51300089F010008A10100081F
:10001000A5010008A9010008AD01000800000000CA
:10002000000000000000000000000000B101000816
:10003000B301000800000000B5010008ED1300083E
:10004000EF130008EF130008EF130008EF13000888
:10005000EF130008EF130008EF130008EF13000878
:10006000EF130008EF130008EF130008EF13000868
:10007000EF130008EF130008EF130008EF13000858
:10008000EF130008EF130008EF130008EF13000848
:10009000EF130008EF130008EF130008EF13000838
:1000A000EF130008EF130008EF130008EF13000828
:1000B000EF130008EF130008EF130008EF13000818
:1000C000EF130008EF130008EF130008EF13000808
:1000D000EF13000885210008EF130008EF13000854
:1000E000EF130008EF130008EF13000800F002F808
:1000F00000F03AF80AA090E8000C82448344AAF188
:100100000107DA4501D100F02FF8AFF2090EBAE885
:100110000F0013F0010F18BFFB1A43F0010318473B
:10012000D0C50000F0C50000103A24BF78C878C1DF
:10013000FAD8520724BF30C830C144BF04680C60ED
:10014000704700000023002400250026103A28BF35
:1001500078C1FBD8520728BF30C148BF0B60704739
:100160001FB51FBD10B510BD02F057F81146FFF7BF
:10017000F7FF00F008F802F075F803B4FFF7F2FF9C
:1001800003BC01F0A5FF01F035FF01F09BFF4FF428
:10019000165001F0ABFF01E001F0C0F8FCE770473A
:1001A00000BFFEE700BFFEE700BFFEE700BFFEE7BF
:1001B00070477047704700000CB500200190009018
:1001C0006B48006840F480306949086000BF6848A7
:1001D000006800F4003000900198401C01900098E5
:1001E00018B90198B0F5A06FF1D16148006810F41A
:1001F000003F02D00120009001E000200090009814
:10020000012842D15B48006840F01000594908605D
:100210000846006820F0030008600846006840F0C7
:1002200002000860524840685149486008464068EA
:1002300048600846406840F480604860084640686E
:1002400020F47C1048600846406840F4E81048609C
:100250000846006840F08070086000BF44480068AD
:1002600010F0007FFAD04248406820F00300404977
:1002700048600846406840F00200486000BF3C48C3
:10028000406800F00C000828F9D10CBD10B5FFF74C
:1002900093FF10BD10B53648006840F001003449A6
:1002A00008600846406834490840314948600846BB
:1002B0000068324908402E4908600846006820F46A
:1002C000802008600846406820F4FE0048604FF433
:1002D0001F008860FFF7DAFF4FF0006028490860D0
:1002E00010BD10B5002100200022214B5B6803F0F7
:1002F0000C0121B1042906D0082928D107E0214B9F
:10030000214C236027E01F4B1F4C236023E0184B38
:100310005B6803F47010164B5B6803F480320223B1
:1003200003EB904022B9194B4343174C23600DE077
:100330000F4B5B6813F4003F04D0144B4343124C43
:10034000236003E00F4B43430F4C236003E00D4B4E
:100350000D4C236000BF00BF054B5B68C3F3031364
:100360000B4CE15C084B1B68CB40074C236010BD75
:1003700000100240002002400000FFF8FFFFF6FEE0
:1003800008ED00E000127A000000002000093D00A6
:100390000400002030B5014601F01F04C1F34513ED
:1003A000CA0AE50205EB43151544A8B230BD2DE994
:1003B000F04706460F4690469A46002445464FEAC7
:1003C0004800C0F103094AE07A1991B2321990B29B
:1003D000524600F045FE7A1991B2321B90B2524655
:1003E00000F03EFE7A1B91B2321990B2524600F0F4
:1003F00037FE7A1B91B2321B90B2524600F030FEAB
:100400003A1991B2721990B2524600F029FE3A1987
:1004100091B2721B90B2524600F022FE3A1B91B28A
:10042000721990B2524600F01BFE3A1B91B2721B39
:1004300090B2524600F014FEB9F1000F05DA042024
:1004400000FB049000F1060907E0601B042101FB9A
:10045000009000F10A09681E85B2601C84B2AC42AB
:10046000B2DBAC4237D17A1991B2321990B252460E
:1004700000F0F6FD7A1991B2321990B2524600F0AE
:10048000EFFD7A1B91B2321990B2524600F0E8FDAE
:100490007A1B91B2321B90B2524600F0E1FD3A193C
:1004A00091B2721990B2524600F0DAFD3A1991B247
:1004B000721B90B2524600F0D3FD3A1B91B27219F2
:1004C00090B2524600F0CCFD3A1B91B2721B90B232
:1004D000524600F0C5FDBDE8F0872DE9FF4F83B01F
:1004E000804689464946404600F0B0FD0598A0EB9D
:1004F00008050698A0EB0906002D02DB01200290FA
:1005000003E04FF0FF3002906D42002E02DB01202D
:10051000019003E04FF0FF30019076424FEA450A28
:100520004FEA460BB54219DDABEB0504002712E09C
:1005300049464046109A00F093FD002C05DBA4EBE1
:100540000A04019848441FFA80F95C440298404428
:100550001FFA80F87F1CAF42EADD18E0AAEB060420
:10056000002712E049464046109A00F079FD002C21
:1005700005DBA4EB0B04029840441FFA80F85444B6
:10058000019848441FFA80F97F1CB742EADD07B0A2
:10059000BDE8F08F2DE9F84305460C4616461F4688
:1005A000DDF820804EF67D700090A81982B22346B7
:1005B00021462846FFF791FF42F6651004F1010C31
:1005C000BC441FFA8CF305EB060CACF1010C1FFACE
:1005D0008CF204F1010C1FFA8CF105EB060CACF166
:1005E000010C00901FFA8CF0FFF777FF42F66510C0
:1005F0000090E01983B2A81982B2E01981B22846AE
:10060000FFF76BFF4EF67D700090E01983B22A462B
:1006100021462846FFF761FF04F1010CBC44ACF110
:10062000020C1FFA8CF305F1010CB444ACF1020C7E
:100630001FFA8CF204F1010C1FFA8CF105F1010C88
:100640001FFA8CF0CDF80080FFF747FFBDE8F88374
:100650002DE9F84305460C4616461F46DDF8208076
:10066000B8F1000F39D14EF67D700090A81982B212
:10067000234621462846FFF730FF42F6651004F175
:10068000010CBC441FFA8CF305EB060CACF1010C19
:100690001FFA8CF204F1010C1FFA8CF105EB060C29
:1006A000ACF1010C00901FFA8CF0FFF716FF42F638
:1006B00065100090E01983B2A81982B2E01981B2E6
:1006C0002846FFF70AFF4EF67D700090E01983B2CE
:1006D0002A4621462846FFF700FFB8F1010F39D11D
:1006E00042F665100090A81982B22346214628469A
:1006F000FFF7F3FE4EF67D7004F1010CBC441FFAC7
:100700008CF305EB060CACF1010C1FFA8CF204F132
:10071000010C1FFA8CF105EB060CACF1010C0090FA
:100720001FFA8CF0FFF7D9FE4EF67D700090E019AD
:1007300083B2A81982B2E01981B22846FFF7CDFE34
:1007400042F665100090E01983B22A4621462846F9
:10075000FFF7C3FEB8F1020F39D14FF6FF700090DA
:10076000A81982B2234621462846FFF7B6FE4FF667
:10077000FF7004F1010CBC441FFA8CF305EB060C6E
:10078000ACF1010C1FFA8CF204F1010C1FFA8CF190
:1007900005EB060CACF1010C00901FFA8CF0FFF792
:1007A0009CFE4FF6FF700090E01983B2A81982B248
:1007B000E01981B22846FFF790FE4FF6FF700090D7
:1007C000E01983B22A4621462846FFF786FEBDE897
:1007D000F883F8B504460D4616461F4644F2082035
:1007E0002B463246294600902046FFF776FE48F217
:1007F00010406A1C93B291B2621C009090B23246D3
:10080000FFF76BFE44F208203B4622462946009043
:100810002046FFF762FE48F21040631C9AB26B1C40
:1008200099B2631C009098B23B46FFF756FE4FF614
:10083000FF703B463246394600902046FFF74DFE9A
:100840004FF6FF703B463246294600903046FFF790
:1008500044FEF8BDF8B506460F4614461D464FF651
:10086000FF703B462246394600903046FFF735FE82
:100870004FF6FF702B463246394600903046FFF760
:100880002CFE48F210406A1E93B291B2721C009086
:1008900090B22246FFF721FE44F208202B46224662
:1008A000294600903046FFF718FE48F21040631EBC
:1008B0009AB27B1C99B2631E009098B22B46FFF748
:1008C0000CFE44F208202B46224639460090204672
:1008D000FFF703FEF8BD2DE9F84F0746884693461B
:1008E0009A46DDF828900097B3E099F80000802838
:1008F0003DDA99F800600D2E05D1009F08F1100037
:100900001FFA80F830E0202E03DDA6F1200086B229
:1009100000E00026002422E000251CE004EB061085
:10092000E849085C80212941084208D008EB04020C
:1009300091B27A1990B25A4600F092FB09E0D34581
:1009400007D008EB040291B27A1990B2524600F037
:1009500087FB681CC5B2082DE0DB601CC4B2102CFC
:10096000DADB07F1080087B209F1010971E000261E
:1009700068E006EB0610D44911F8100099F8001051
:1009800088425DD106EB0610CF4901EB400040786C
:1009900099F80110884253D100244FE0002520E04F
:1009A00006EB0610C84901EB4000801C10F814103B
:1009B00080202841014208D008EB040291B27A1944
:1009C00090B25A4600F04CFB09E0D34507D008EB43
:1009D000040291B27A1990B2524600F041FB681CB1
:1009E000C5B2082DDCDB002524E006EB0610B64975
:1009F00001EB4000801C012101EB4401405C80219F
:100A00002941084209D008EB040291B27A19083250
:100A100090B25A4600F024FB0AE0D34508D008EB18
:100A2000040291B27A19083290B2524600F018FBD3
:100A3000681CC5B2082DD8DB601CC4B2102CADDB1D
:100A4000701C86B2292E94DB09F1020907F110000F
:100A500087B299F8000000287FF447AFBDE8F88F0F
:100A60002DE9F05F0646884693469A46DDF82890C1
:100A7000E2E099F80000802835DA99F80070202F1C
:100A800003DDA7F1200087B200E00027002522E067
:100A900000241CE005EB07108A49095C80202041F6
:100AA000014208D008EB050291B2321990B25A46C1
:100AB00000F0D6FA09E0D34507D008EB050291B261
:100AC000321990B2524600F0CBFA601CC4B2082C26
:100AD000E0DB681CC5B2102DDADB09F1010906F173
:100AE000080086B2A8E000279EE007EB870000EB35
:100AF0004710764911F8100099F8001088427CD10F
:100B000007EB870000EB4710704901EB400040788D
:100B100099F801108842F2D1002580E0002423E0FA
:100B200007EB870000EB4710684901EB4000801C91
:100B300005EB4501405C80212141084208D008EBCB
:100B4000050291B2321990B25A4600F089FA09E0D2
:100B5000D34507D008EB050291B2321990B2524644
:100B600000F07EFA601CC4B2082CD9DB002426E019
:100B700007EB870000EB4710544901EB4000801C55
:100B800005EB4501491C405C80212141084209D008
:100B900008EB050291B23219083290B25A4600F0C1
:100BA0005FFA0AE0D34508D008EB050291B232198A
:100BB000083290B2524600F053FA601CC4B2082CBE
:100BC000D6DB002427E007EB870000EB47103F4906
:100BD00001EB4000801C05EB4501891C405C802135
:100BE000214108420AD008EB050291B232191032B5
:100BF00090B25A4600F034FA0BE013E0D34508D027
:100C000008EB050291B23219103290B2524600F050
:100C100027FA601CC4B2082CD5DB681CC5B2182D9D
:100C2000FFF67CAF781C87B2192FFFF65EAF09F193
:100C3000020906F1180086B299F8000000287FF436
:100C400018AFBDE8F09F2DE9F05F07468846924651
:100C50009946002531E000242BE01D490A9801EB5C
:100C6000C01000EB850010F804B000261DE08020C5
:100C7000304110EA0B0F0AD008EB050291B207EBE6
:100C8000C402324490B2524600F0EAF90BE0CA4581
:100C900009D008EB050291B207EBC402324490B2CE
:100CA0004A4600F0DDF9701CC6B2082EDFDB601C7E
:100CB000C4B2042CD1DB681CC5B2202DCBDBBDE84F
:100CC000F09F000078220008EA2F00087E35000817
:100CD0006928000808B50121082000F01FFF4BF229
:100CE0000300ADF8000003208DF8020010208DF8FD
:100CF00003006946F54800F05BFC08BD00210821AF
:100D000018E010F0800F05D04FF40042EF4B103385
:100D10001A6004E04FF40042EC4B14331A604FF4B5
:100D20000052EA4B14331A601B1F1A604206100E61
:100D30004A1ED1B20029E4DC704710B504464FF4D6
:100D40008050E24914310860022008602046FFF715
:100D5000D5FF4FF48050DD491031086010BD10B54B
:100D600004464FF48050D949143108600220091F0D
:100D700008602046FFF7C2FF4FF48050D34910317E
:100D8000086010BD10B504464FF48050CF491431AF
:100D900008600220091F08602012FFF7AFFFE0B2D1
:100DA000FFF7ACFF4FF48050C8491031086010BD08
:100DB00030B505460C462846FFF7BFFF2046FFF733
:100DC000CEFF30BD10B5642001F050F9322001F0A3
:100DD0004DF910BD10B5FFF77DFFFFF7F3FF1120B0
:100DE000FFF7ABFF782001F041F9B120FFF7A5FF35
:100DF0000120FFF7B4FF2C20FFF7B1FF2D20FFF7F4
:100E0000AEFFB220FFF799FF0120FFF7A8FF2C20CB
:100E1000FFF7A5FF2D20FFF7A2FFB320FFF78DFFFF
:100E20000120FFF79CFF2C20FFF799FF2D20FFF7F3
:100E300096FF0120FFF793FF2C20FFF790FF2D2056
:100E4000FFF78DFFB420FFF778FF0720FFF787FF3C
:100E5000C020FFF772FFA220FFF781FF0220FFF7FB
:100E60007EFF8420FFF77BFFC120FFF766FFC520D0
:100E7000FFF775FFC220FFF760FF0A20FFF76FFF43
:100E80000020FFF76CFFC320FFF757FF8A20FFF712
:100E900066FF2A20FFF763FFC420FFF74EFF8A207A
:100EA000FFF75DFFEE20FFF75AFFC520FFF745FF74
:100EB0000E20FFF754FF3620FFF73FFFC820FFF753
:100EC0004EFFE020FFF739FF0F20FFF748FF1A2001
:100ED000FFF745FF0F20FFF742FF1820FFF73FFF06
:100EE0002F20FFF73CFF2820FFF739FF2020FFF7D6
:100EF00036FF2220FFF733FF1F20FFF730FF1B20B4
:100F0000FFF72DFF2320FFF72AFF3720FFF727FFEA
:100F10000020FFF724FF0720FFF721FF0220FFF743
:100F20001EFF1020FFF71BFFE120FFF706FF0F2039
:100F3000FFF715FF1B20FFF712FF0F20FFF70FFF32
:100F40001720FFF70CFF3320FFF709FF2C20FFF7D6
:100F500006FF2920FFF703FF2E20FFF700FF3020B8
:100F6000FFF7FDFE3020FFF7FAFE3920FFF7F7FE0E
:100F70003F20FFF7F4FE0020FFF7F1FE0720FFF708
:100F8000EEFE0320FFF7EBFE1020FFF7E8FE2A201D
:100F9000FFF7D3FE0020FFF7E2FE0020FFF7DFFEA1
:100FA0000020FFF7DCFE7F20FFF7D9FE2B20FFF7A4
:100FB000C4FE0020FFF7D3FE0020FFF7D0FE002084
:100FC000FFF7CDFE9F20FFF7CAFEF020FFF7B5FE2A
:100FD0000120FFF7C4FEF620FFF7AFFE0020FFF769
:100FE000BEFE3A20FFF7A9FE0520FFF7B8FE292034
:100FF000FFF7A3FE10BDF0B504460D4616461F468A
:101000002A20FFF79AFE0020FFF7A9FEA11CC8B214
:10101000FFF7A5FE0020FFF7A2FEB11CC8B2FFF744
:101020009EFE2B20FFF789FE0020FFF798FEE91CAB
:10103000C8B2FFF794FE0020FFF791FEF91CC8B27A
:10104000FFF78DFE2C20FFF778FEF0BD30B504468B
:101050000D462B46224629462046FFF7CCFF30BDE1
:1010600070B504460D461646681C83B2601C82B2F9
:1010700029462046FFF7BFFF3046FFF783FE70BDCD
:1010800060B505460E4631462846FFF7DFFFE0B261
:10109000FFF765FE204660BD70B506467F231A4601
:1010A00000210846FFF7A7FF2C20FFF746FE00248B
:1010B00008E0002503E03046FFF764FE6D1C802D3C
:1010C000F9D3641C802CF4D370BD0000000C0140E7
:1010D00008B54EF67D70FFF7DFFF9DA04EF67D73DD
:1010E0000022042100900820FFF7F5FB9CA04EF69B
:1010F0007D731F221E2100901820FFF7ECFB422376
:10110000712230210F20FFF7A5FB98A04EF67D73CA
:101110004FF47842322100901020FFF7DCFB562379
:10112000712244210F20FFF795FB93A04EF67D73AB
:101130004FF4FC62462100901020FFF7CCFB6A239D
:10114000712258210F20FFF785FB8FA04EF67D738B
:101150001F225A2100901020FFF7BDFB7E23712231
:101160006C210F20FFF776FB8BA04EF67D734FF4BA
:1011700078426E2100901020FFF7ADFB40F2DC506A
:1011800000F074FF08BDF8B500244EF67D70FFF73F
:1011900083FF85A04EF67D734FF4784214210090B2
:1011A0001020FFF798FB4FF47A7000F05FFF4EF6C7
:1011B0007D70FFF771FF00BF21E0032094FBF0F08A
:1011C0004001401D85B2032094FBF0F100FB11406B
:1011D00000EB80004FF6FF7101EAC0067549601C04
:1011E000085C4EF67D734FF47842294600903046F5
:1011F000FFF729FD642000F039FF601CC4B20A2CFF
:10120000DBDBF8BD08B54EF67D70FFF745FF54A057
:101210004EF67D734FF478420A2100901020FFF7BC
:101220005AFB65A04EF67D7300221E2100903C20E3
:10123000FFF751FB4DA04EF67D731F223221009027
:101240001020FFF748FB4CA04EF67D734FF4784218
:10125000462100901020FFF73EFB4BA04EF67D7319
:101260001F225A2100901020FFF735FB4AA04EF6AE
:101270007D734FF478426E2100901020FFF72BFB16
:101280004FF4E16000F0F2FE08BD38B501244EF6DF
:101290007D70FFF701FF4AA04EF67D731F220A21E1
:1012A00000901420FFF717FBC82000F0DFFE11E0CC
:1012B0004FF6FF70FFF7F0FE0020FFF7EDFE4FF452
:1012C0007840FFF7E9FE4FF4FC60FFF7E5FE1F20D2
:1012D000FFF7E2FE2000A4F10101CCB2E8D138BD55
:1012E0002DE9F04105464FF6FF70FFF7D5FE7D234F
:1012F0007F2200210846FFF77EFE002409E015F852
:10130000147005EB4400467847EA0620FFF73AFDE3
:10131000641CB4F57C5FF2DBBDE8F08110B5FFF72B
:1013200059FD012029490860FFF7D2FEFFF7ADFF04
:10133000FFF729FFFFF766FF2548FFF7D1FF4FF4BE
:10134000966000F093FE01202049091D086010BD41
:10135000B4F3D1A7C9FAB5E7D7D3C9CCC6CC00003E
:10136000A1B6BEB2D2B9CBBCA1B70000B4B2C7B06F
:10137000C3F7D4C2B9E22C00D2C9CAC7B5D8C9CF05
:10138000CBAAA1A300000000BED9CDB7CDFBC3F707
:10139000D4C2A3AC00000000B5CDCDB7CBBCB9CA58
:1013A000CFE7A1A3000000004E756D205465737453
:1013B0000000000014000020C0EEB0D700000000C4
:1013C000436F6C6F7220546573740000100C014001
:1013D0006E3C00080948804709480047FEE7FEE7E1
:1013E000FEE7FEE7FEE7FEE7FEE7FEE7FEE7FEE7D5
:1013F00004480549054A064B70470000950200085D
:10140000ED00000868010020680700206803002044
:101410006803002031490143314A1160704770B5BB
:10142000002100230F22C4780CB32D4C246804F44F
:10143000E064C4F5E064210AC1F10403CA404478C1
:1014400004FA03F18478144021430901254C0678FD
:10145000A155047804F01F050124AC4005786D11F6
:101460004FF0E02606EB8505C5F8004109E0047859
:1014700004F01F050124AC401B4D0678761145F899
:10148000264070BD194A0A400243154B1B1F1A60C3
:10149000704739B1124A121D12680243104B1B1DCE
:1014A0001A6006E00E4A121D126882430C4B1B1D87
:1014B0001A607047042808D14FF0E021096941F013
:1014C00004014FF0E022116107E04FF0E0210969CB
:1014D00021F004014FF0E022116170470000FA058D
:1014E0000CED00E000E400E080E100E080FFFF1F81
:1014F00010B50446CA48844208D10121042000F0F6
:1015000027FB0021042000F023FB46E0C54884426D
:1015100008D10121082000F01BFB0021082000F069
:1015200017FB3AE0C048844208D10121102000F0A6
:101530000FFB0021102000F00BFB2EE0BB48844283
:1015400008D10121202000F003FB0021202000F021
:10155000FFFA22E0B648844208D10121402000F081
:10156000F7FA0021402000F0F3FA16E0B148844277
:1015700008D10121802000F0EBFA0021802000F04A
:10158000E7FA0AE0AC48844207D10121801500F057
:10159000DFFA0021A01500F0DBFA10BD10B5012123
:1015A000084600F0D5FA0021012000F0D1FA10BD64
:1015B0002DE9F041024600250026002000230024EA
:1015C000002791F803C00CF00F0591F803C01CF040
:1015D000100F03D091F802C04CEA050591F800C045
:1015E000BCF1000F31D0146800202BE04FF0010C4B
:1015F0000CFA00F3B1F800C00CEA03069E4220D1B9
:1016000083004FF00F0C0CFA03F7BC4305FA03FC00
:101610004CEA040491F803C0BCF1280F06D14FF046
:10162000010C0CFA00FCC2F814C00AE091F803C0E7
:10163000BCF1480F05D14FF0010C0CFA00FCC2F8C8
:1016400010C0401C0828D1D31460B1F800C0BCF110
:10165000FF0F34DD546800202EE000F1080C4FF03D
:10166000010808FA0CF3B1F800C00CEA03069E4228
:1016700021D183004FF00F0C0CFA03F7BC4305FA9D
:1016800003FC4CEA040491F803C0BCF1280F05D117
:1016900000F1080C08FA0CF8C2F8148091F803C0A5
:1016A000BCF1480F07D100F1080C4FF0010808FA0F
:1016B0000CF8C2F81080401C0828CED35460BDE856
:1016C000F0814FF6FF710180022181700421C17009
:1016D00070470246002093680B4201D0012000E0D1
:1016E000002070470146886880B27047024600209B
:1016F000D3680B4201D0012000E000207047014672
:10170000C86880B2704701617047416170470AB193
:10171000016100E041617047C16070474FF4803261
:101720000A438261816182618269826970470246EF
:101730000020424B18684FF68073184040EA0210B0
:1017400008433E4B186070473D49C8617047F0B58B
:101750000A46002300240021002500F00046B6F1CF
:10176000004F02D1354EF16901E0344E7168C0F38B
:10177000034583B200F44016B6F5401F08D121F0AE
:1017800070612E4E766826F070662C4F7E6012E0F7
:1017900000F48016B6F5801F06D1032606FA05F47C
:1017A000A14341F0706106E0460D360103FA06F6EA
:1017B000B14341F0706122B1460D360103FA06F6DD
:1017C000314300F00046B6F1004F02D11B4EF161EB
:1017D00001E01A4E7160F0BD30B500228B071C0F7E
:1017E0000F2303FA04F2154B08338C1053F82430FE
:1017F0009343124C08348D1044F8253023468C1046
:1018000053F824308C07240F00FA04F423430B4CC4
:1018100008348D1044F8253030BD0A4908607047FF
:1018200000080140000C014000100140001401407C
:1018300000180140001C0140002001400000014050
:1018400000002042DC002042DD48006840F001003A
:10185000DB49086008464068DA490840D8494860D2
:1018600008460068D8490840D5490860084600681D
:1018700020F4802008600846406820F4FE0048609C
:101880004FF41F0088607047CD49096821F480310A
:10189000CB4A11601146096821F480211160B0F52E
:1018A000803F03D0B0F5802F0ED106E0C44909680F
:1018B00041F48031C24A116007E0C149096841F42E
:1018C000A021BF4A116000E000BF00BF704710B503
:1018D00001460022002300204A11012A02D1B84CFF
:1018E000236806E0022A02D1B54C236A01E0B44C19
:1018F000636A01F01F02012494401C4201D00120C0
:1019000000E0002010BD38B5002000900024002524
:1019100000BF3120FFF7DBFF05460098401C009018
:101920000098B0F5A06F01D0002DF2D03120FFF764
:10193000CEFF08B1012400E00024204638BD014656
:1019400000209F4A106820F0F80040EAC1001060B3
:1019500070479E490860704702460020984B5868BF
:1019600020F47C1042EA01031843954B58607047FD
:1019700096490866704701460020914A506820F059
:1019800003000843506070478D48406800F00C0029
:101990007047014600208A4A506820F0F000084352
:1019A0005060704701460020854A506820F4E0608E
:1019B00008435060704701460020814A506820F477
:1019C000605040EAC1005060704729B17C4A527AA9
:1019D00002437B4B5A7204E0794A527A8243784B35
:1019E0005A7270477A490860704701460020744A6D
:1019F000506820F440400843506070470021754A09
:101A000011706F4A82F82010012802D0042808D1F2
:101A100003E001216F4A117004E005216D4A117045
:101A200000E000BF00BF70476B4908607047644921
:101A3000096A0143624A1162704767494439086084
:101A4000704730B500210022002400235C4D6D68F2
:101A500005F00C0121B1042905D0082923D105E0A6
:101A60005E4D056022E05D4D05601FE0544D6D68E0
:101A700005F47012524D6D6805F48034022505EBB3
:101A800092421CB9564D554305600BE04C4D6D68B4
:101A900015F4003F03D0524D5543056002E04F4D11
:101AA0005543056002E04D4D056000BF00BF444D49
:101AB0006D6805F0F00109094A4D6B5C0568DD4071
:101AC00045603F4D6D6805F4E061090A454D6B5C6A
:101AD0004568DD4085603A4D6D6805F46051C90A7E
:101AE000404D6B5C4568DD40C560354D6D6805F463
:101AF0004041890B3C4D6B5CC568B5FBF3F5056156
:101B000030BD29B12E4A526902432D4B5A6104E07F
:101B10002B4A526982432A4B5A61704729B1284A9D
:101B200092690243264B9A6104E0254A92698243F6
:101B3000234B9A61704729B1214AD2690243204B55
:101B4000DA6104E01E4AD26982431D4BDA617047B4
:101B500029B11B4AD2680243194BDA6004E0184AE3
:101B6000D2688243164BDA60704729B1144A126971
:101B70000243134B1A6104E0114A12698243104B6D
:101B80001A61704714494039086070470F49C864AA
:101B900070470B49C87170470948406A40F080702F
:101BA00007494862704701460020054A92680A4288
:101BB00001D0012000E00020704701498872704781
:101BC000001002400000FFF8FFFFF6FE0000424256
:101BD000D8004242201002408004424200127A00A3
:101BE00000093D001E0000202E00002010B5044614
:101BF000FB48844209D101218803FFF7A9FF002196
:101C00004FF48040FFF7A4FF32E0F648844209D148
:101C100001214804FFF7A9FF00214FF40030FFF72E
:101C2000A4FF25E0F048844209D101218804FFF790
:101C30009CFF00214FF48020FFF797FF18E0EB484E
:101C4000844209D10121C804FFF78FFF00214FF41E
:101C50000020FFF78AFF0BE0E548844208D101210C
:101C60000805FFF782FF00214FF48010FFF77DFF8A
:101C700010BD2DE9F04786B005460E460024A24669
:101C800000BFA1460027B08900B100BF2F462C8AB3
:101C90004CF6FF700440F08804432C82AC894EF669
:101CA000F3100440B0883189084371890843044324
:101CB000AC81AC8A4FF6FF400440B0890443AC824B
:101CC00001A8FFF7BEFEC648874202D1DDF810A08A
:101CD00001E0DDF80CA0A88910F4004F08D00AEB51
:101CE000CA0000EB0A1031684900B0FBF1F807E0C8
:101CF0000AEBCA0000EB0A1031688900B0FBF1F86A
:101D00006420B8FBF0F004012009642101FB108974
:101D1000A88910F4004F08D0322000EBC900B0FBB6
:101D2000F1F000F00700044308E0322000EB091056
:101D30006421B0FBF1F000F00F0004432C8106B0E9
:101D4000BDE8F0874FF41651016000218180C18009
:101D500001810C21418100218181704710B502462B
:101D60000020108A4FF2FF0318400B884C88234351
:101D70008C882343CC8823431843108210BD002154
:101D8000018041808180C180704721B1828942F405
:101D90000052828104E082894DF6FF731A408281ED
:101DA0007047F0B503460024002600250020A1F569
:101DB00010676A3F00D100BF1846C1F3421401F01A
:101DC0001F06012707FA06F5012C01D10C3004E0AB
:101DD000022C01D1103000E014301AB107682F43F3
:101DE000076002E00768AF430760F0BD1AB1838A5D
:101DF0000B43838202E0838A8B4383827047028A8B
:101E00004FF6F0731A400282028A0A430282704738
:101E100082894FF2FF731A40828182890A4382814C
:101E2000704721B1828942F00202828104E08289F6
:101E30004FF6FD731A4082817047028A4FF6DF73B6
:101E40001A400282028A0A430282704721B1028A42
:101E500042F48042028204E0028A4BF6FF731A4089
:101E600002827047C1F30802828070470146888869
:101E7000C0F308007047818941F0010181817047FA
:101E8000028BD2B20283028B42EA012202837047A4
:101E9000028B02F47F420283028B0A430283704763
:101EA00021B1828A42F02002828204E0828A4FF6C7
:101EB000DF731A408282704721B1828A42F0100299
:101EC000828204E0828A4FF6EF731A408282704762
:101ED00021B1828A42F00802828204E0828A4FF6AF
:101EE000F7731A408282704721B1828942F400421E
:101EF000828103E08289C2F30E028281704721B1A0
:101F0000828A42F40062828204E0828A4FF2FF7386
:101F10001A4082827047828A4FF6FB731A4082828F
:101F2000828A0A438282704721B1828A42F0020289
:101F3000828204E0828A4FF6FD731A4082827047E3
:101F400002460020B1F5007F00D100BF13880B428C
:101F500001D0012000E00020704701F40072B2F5CA
:101F6000007F00D100BFCA430280704770B50246AF
:101F70000024002300250020A1F510666A3E00D150
:101F800000BFC1F3421501F01F03012606FA03F357
:101F9000012D02D19689334006E0022D02D1168A26
:101FA000334001E0968A33400C12012606FA04F40D
:101FB0001688344013B10CB1012000E0002070BD40
:101FC00010B500220023A1F510646A3C00D100BFC7
:101FD0000A1201249440A3B2DC43048010BD000027
:101FE000003801400044004000480040004C0040E0
:101FF0000050004010B56FF00400FFF75BFA2D4869
:1020000000682D49B0FBF1F02C49087008460078B3
:1020100000EB4001C1EBC0104FF6FF7101EAC000B8
:102020002749088010BD0146244A12784A434FF0E0
:10203000E0235A6100229A611A46126942F00102B5
:102040001A6100BF4FF0E022106910F0010F02D0BA
:1020500010F4803FF6D04FF0E022126922F0010226
:102060004FF0E0231A6100229A6170470146144A3A
:1020700012884A434FF0E0235A6100229A611A46BF
:10208000126942F001021A6100BF4FF0E0221069AC
:1020900010F0010F02D010F4803FF6D04FF0E02294
:1020A000126922F001024FF0E0231A6100229A61C6
:1020B000704700000000002000127A00320000206B
:1020C0003400002010B54FF4A060FFF7A3F910BD55
:1020D000014600BF704700BF494A128812F0400F06
:1020E000FAD0C2B2464B1B1D1A80704710B586B09D
:1020F0000446012144F20400FFF710FD4FF4007084
:10210000ADF8140003208DF8160018208DF8170084
:1021100005A93C48FFF74CFA4FF48060ADF8140075
:1021200004208DF8170005A93648FFF741FA25204D
:102130008DF8000003208DF801008DF802000120C9
:102140008DF803006846FFF76AF901940020ADF8A6
:102150000800ADF80A00ADF80C00ADF810000C2036
:10216000ADF80E0001A92648FFF783FD012240F2D9
:1021700025512348FFF715FE01212148FFF705FEF1
:1021800006B010BD10B540F225511D48FFF7EEFE18
:1021900010B31B48FFF76AFEC4B21B48008810F456
:1021A000004F2BD11848008810F4804F0CD00A2C17
:1021B00003D000201449088020E01348008840F430
:1021C00000401149088019E00D2C06D10E48008806
:1021D00040F480400C49088010E00B480088C0F3B0
:1021E0000D000A490C5408480088401C0649088024
:1021F00008460088C72801DD0020088010BD0000C7
:102200000038014000080140380000204000002054
:1022100070477047704770477047754600F028F860
:10222000AE4605006946534620F00700854618B0C3
:1022300020B5FFF7DDF8BDE820404FF000064FF075
:1022400000074FF000084FF0000B21F00701AC46EB
:10225000ACE8C009ACE8C009ACE8C009ACE8C0090A
:102260008D4670470446AFF300802046FDF785FF9A
:102270000048704708010020000000000000000036
:1022800000000000000000000010101010101010DE
:10229000101000001010000000006C6C24240000DE
:1022A00000000100000000000024242424FE48480F
:1022B0004848FC909090900000103C549290503808
:1022C00014121292547810000000225C94A8481056
:1022D00010242A5254880000000030484850206ED4
:1022E00054948C888A740000000030301010000074
:1022F0000000000000000000000408101020202052
:102300002020201010080400008040202010101011
:1023100010101020204080000000000010543810E1
:10232000385410000000000000000010101010FED3
:10233000101010100000000000000000000000005D
:10234000000000001010200000000000000000FE4F
:10235000000000000000000000000000000000007D
:102360000000000010100000000004040808101015
:102370002020404080800000000038448282828219
:102380008282828244380000000010701010101009
:1023900010101010107C00000000384482820408E5
:1023A0001020408284FC000000003844820204387F
:1023B00004020282443800000000040C1414242497
:1023C0004444FE04040E00000000FC808080B8C479
:1023D000820202828478000000003C428280B8C4FD
:1023E000828282824438000000007E428204040817
:1023F0000808101010100000000038448282443891
:102400004482828244380000000038448282828202
:10241000463A02824438000000000000101000001C
:10242000000010100000000000000000101000006C
:10243000000000101020000000000000061860805E
:102440006018060000000000000000000000FE0010
:1024500000FE00000000000000000000C0300C0280
:102460000C30C000000000000038448282020408E2
:10247000101010001010000000003844829AAAAA20
:10248000AAAAAA9680423C00000010101028282812
:1024900044447C4444EE00000000FC424242427C42
:1024A0004242424242FC000000003C448280808064
:1024B00080808282443800000000F8444242424258
:1024C0004242424244F800000000FC444240447C46
:1024D0004440404244FC00000000FC444240447C34
:1024E0004440404040F000000000344C8280808036
:1024F0008E8484844C3400000000EE444444447CC8
:102500004444444444EE000000007C1010101010BD
:1025100010101010107C000000003E080808080889
:1025200008080888887000000000EE4448485060A1
:102530005048484444EE00000000E0404040404025
:102540004040404244FC00000000C6446C6C6C54A7
:102550005454444444EE00000000CE446464645487
:10256000544C4C4C44E40000000038448282828287
:1025700082828282443800000000F8444242424491
:102580007840404040E0000000003844828282826F
:10259000828282BA443C02000000F048444444482D
:1025A0007048444444E6000000003C4482804030CF
:1025B0000C0202824478000000007C54921010103B
:1025C00010101010103800000000EE444444444441
:1025D00044444444443800000000EE444444442849
:1025E00028282810101000000000EE4454545454C1
:1025F00054542828282800000000EE4444282810BD
:102600001028284444EE00000000EE444428282806
:10261000101010101038000000007E4484080810CC
:102620002020408284FC0000001C101010101010AC
:102630001010101010101C000000EE445454FE54F2
:102640005454282828280000007010101010101072
:1026500010101010101070000030488400000000AE
:10266000000000000000000000000000000000006A
:10267000000000000000FE000040200000000000FC
:10268000000000000000000000000000000078844E
:10269000047C84848C7600000000C0404040586474
:1026A00042424242645800000000000000003844EA
:1026B000808080804438000000000C040404344C06
:1026C000848484844C36000000000000000078847C
:1026D00084FC808084780000000018242020F820EA
:1026E00020202020207000000000000000003A445C
:1026F0004478807C82827C000000C0404040586466
:102700004444444444EE0000000010100000301027
:1027100010101010103800000000101000003010D1
:1027200010101010109060000000C04040405C4845
:102730005060504844EE000000003010101010119E
:102740001010101010390000000000000000ACD282
:102750009292929292D6000000000000000058E48D
:102760004444444444EE00000000000000003844AB
:102770008282828244380000000000000000D86499
:10278000424242645840E000000000000000364C25
:102790008484844C34040E000000000000006C307F
:1027A0002020202020700000000000000000788819
:1027B0008460188444780000000000202020F82065
:1027C0002020202024180000000000000000C64245
:1027D00042424242463A0000000000000000EE443F
:1027E0004428282810100000000000000000EE44DB
:1027F0004454542828280000000000000000EE4443
:102800002810102844EE0000000000000000EE44F4
:102810004428281010A0C0000000000000007E44E2
:102820008810204284FC0000000C10101010106072
:102830001010101010100C000010101010101010BC
:10284000101010101010100000C0202020202018A0
:10285000202020202020C000000000000000007286
:102860008C000000000000000000000000001FE0DD
:1028700000003FF000003FF000001FE00001800674
:102880000003C00F0003C00F0003C00F0003C00F00
:102890000003C00F0003C00F0003C00F0003C00FF0
:1028A0000003000300000000000000000000000022
:1028B000000300030003C00F0003C00F0003C00F9C
:1028C0000003C00F0003C00F0003C00F0003C00FC0
:1028D0000003C00F0001800600001FE000003FF071
:1028E00000003FF000001FE00000000000000000BA
:1028F00000000080000001800000038000000780CD
:1029000000000780000007800000078000000780AB
:10291000000007800000078000000780000007809B
:102920000000018000000000000000000000000026
:102930000000018000000780000007800000078081
:10294000000007800000078000000780000007806B
:102950000000078000000780000003800000018065
:1029600000000080000000000000000000001FE0E8
:1029700000003FF00000FFF00001FFE00000000653
:102980000000000F0000000F0000000F0000000F0B
:102990000000000F0000000F0000000F0000000FFB
:1029A00000001FE300007FF800007FF800001FE038
:1029B000000300000003C0000003C0000003C000CB
:1029C0000003C0000003C0000003C0000003C000FB
:1029D0000003C0000001800000001FF000003FF86D
:1029E00000003FFC00001FFE000000000003FF800D
:1029F0000001FFC00000FFC000007F800000001841
:102A00000000003C0000003C0000003C0000003CD6
:102A10000000003C0000003C0000003C0000003CC6
:102A200000007F8C0001FFE00001FFF000007F80CC
:102A30000000000C0000003C0000003C0000003CD6
:102A40000000003C0000003C0000003C0000003C96
:102A50000000003C0000001800007F800000FFC064
:102A60000001FFC00003FF80000000000000000024
:102A70000002000100030003000380070003C00FF1
:102A80000003C00F0003C00F0003C00F0003C00FFE
:102A90000003C00F0003C00F0003C00F0003C00FEE
:102AA00000031FE300007FF800007FFC00001FE030
:102AB000000000030000000F0000000F0000000FE6
:102AC0000000000F0000000F0000000F0000000FCA
:102AD0000000000F0000000F0000000700000003CE
:102AE00000000001000000000000000000001FFCCA
:102AF00000003FF800003FF000001FE000018000F0
:102B00000003C0000003C0000003C0000003C000B9
:102B10000003C0000003C0000003C0000003C000A9
:102B200000031FE000007FF800007FF800001FE0B6
:102B3000000000030000000F0000000F0000000F65
:102B40000000000F0000000F0000000F0000000F49
:102B50000000000F0000000600003FE000007FF0D2
:102B60000000FFF00001FFE00000000000001FFC7B
:102B700000003FF800003FF000001FE0000180006F
:102B80000003C0000003C0000003C0000003C00039
:102B90000003C0000003C0000003C0000003C00029
:102BA00000031FE000007FF800007FFC00001FE032
:102BB000000300030003C00F0003C00F0003C00F99
:102BC0000003C00F0003C00F0003C00F0003C00FBD
:102BD0000003C00F0001800600001FE000003FF06E
:102BE00000003FF000001FE0000000000007FFE0D1
:102BF0000003FFC00001FF880000FF18000000383C
:102C000000000078000000780000007800000078E4
:102C100000000078000000780000007800000078D4
:102C2000000000180000000000000000000000008C
:102C30000000001800000078000000780000007814
:102C400000000078000000780000007800000078A4
:102C50000000007800000078000000380000001834
:102C600000000008000000000000000000001FE05D
:102C700000003FF000003FF000001FE00001800670
:102C80000003C00F0003C00F0003C00F0003C00FFC
:102C90000003C00F0003C00F0003C00F0003C00FEC
:102CA00000031FE300007FF800007FFC00001FE02E
:102CB000000300030003C00F0003C00F0003C00F98
:102CC0000003C00F0003C00F0003C00F0003C00FBC
:102CD0000003C00F0001800600001FE000003FF06D
:102CE00000003FF000001FE00000000000001FE0B7
:102CF00000003FF000003FF000001FE000018006F0
:102D00000003C00F0003C00F0003C00F0003C00F7B
:102D10000003C00F0003C00F0003C00F0003C00F6B
:102D200000031FE300007FF800007FFC00001FE0AD
:102D3000000000030000000F0000000F0000000F63
:102D40000000000F0000000F0000000F0000000F47
:102D50000000000F0000000600001FE000003FF030
:102D600000007FF00000FFE0000000000000000015
:102D70000000000000000000000000000000000053
:102D80000000000000000000000000000000000043
:102D90000000000000000000000000000000000033
:102DA0000000000000000000000000000000000023
:102DB000000000000000000000000000000078009B
:102DC0000000780000007800000078000000780023
:102DD000000078000000000000000000000000007B
:102DE00000000000000000000000000000000000E3
:102DF00000000000000000000000000000000000D3
:102E000000000000000000000000070000000F802C
:102E100000000F8000000F8000000700000000008D
:102E200000000000000000000000000000000000A2
:102E3000000000000000070000000F8000000F806D
:102E400000000F80000007000000000000000000EC
:102E50000000000000000000000000000000000072
:102E60000000000000000000000000000000000062
:102E700000000000000000000007C006000FE00690
:102E80000000000C003018180030181800301830FE
:102E90000030183000301860003008C00007C0C093
:102EA000000FE080000000000000000FE0000607B7
:102EB000C000063018000C3018000C301800183014
:102EC0001800303018003030180060000000C00FCB
:102ED000E000C007C000000000000000000000008B
:102EE00000000000000000000000000000000000E2
:102EF00000000000000000000000000000000000D2
:102F0000000700E0000887FC00088E030008980115
:102F100080071800800030000000300000007000C2
:102F20000000600000006000000060000000600021
:102F30000000600000007000000030000000300061
:102F4000000038000000180100000C03000007FC1E
:102F5000000001F000000000000000000000000080
:102F60000000000000000000000000000000000061
:102F70000000000000000000000000000000000051
:102F80000000000000000000000000000000000041
:102F90000000000000000000000000000000000031
:102FA0000000000000003FF000007FF000007FE024
:102FB0000000FFC000000000000000000000000052
:102FC0000000000000000000000000000000000001
:102FD00000000000000000000000000000000000F1
:102FE00000000000000000000000A1B60010002456
:102FF0000048009001200240048009000480024043
:10300000012000900048002400100000BEB21040D3
:103010001040FE7810887C1011FCFE2400247DFEF8
:1030200044247C2445FC7C24442054A04840D2B94C
:1030300002000100FFFE0880088010F811083148E6
:1030400052289510111010A0104010A0111816064B
:10305000CBBC00003FF8210821083FF821082108D7
:103060003FF820080100088848844812481287F079
:103070000000A1B7080024001200090004800240EB
:103080000120009001200240048009001200240069
:1030900008000000C0EE010001007FFC0380054035
:1030A00009203118C1060FE000400080FFFE01003A
:1030B000010005000200B0D70100020004003FF843
:1030C00020082008200820083FF8200820082008B1
:1030D000200820083FF82008B4B2010000803FFE1D
:1030E0002000208020802FFC208021C022A022A050
:1030F00024904888508680800080C7B01010081047
:103100000820FFFE00003E08224822483E48224890
:1031100022483E48220822082A282410C3F700002B
:1031200000FC7C844484448444FC7C844484448443
:1031300044FC7C8444840104010402140408D4C2C5
:1031400000001FF81008100810081FF810081008D9
:1031500010081FF8100810082008200840288010C8
:10316000B9E2010021081108091009200100FFFE41
:103170000440044004400440084208421042203EFB
:10318000C000A3AC00000000000000000000000030
:1031900000000000000000000000300030001000BF
:1031A00020000000D2C940004DFC7008445044206B
:1031B0003DFE40247C2890A010B8FEA010A028E07E
:1031C0002520451E8200CAC71FF0101010101FF0E6
:1031D000101010101FF00000FFFE0100110011F888
:1031E00011002900450083FEB5D8102010201020C2
:1031F0001120112CFD34116413A411241134112851
:103200001D22E122410200FE0000C9CF020002009F
:10321000020002000200020003F8020002000200A5
:103220000200020002000200FFFE0000CBAA3FF8ED
:1032300001007FFE41029D7401001D70000008FC2A
:103240007E8418FC2C844AFC888408FC0884A1A392
:10325000000000000000000000000000000000006E
:1032600000000000180024002400180000000000E6
:10327000BED92208110811100020FFFE08201110ED
:103280002108CFE6010001007FFC010001000100E0
:103290000100CDB700800080088004802480108069
:1032A00010800080FFFE0100014002200410080889
:1032B0003004C004CDFB1000087CFF44207C204477
:1032C000267C3844209401087FFC010001003FF86F
:1032D00001000100FFFEC3F7000000FC7C84448471
:1032E000448444FC7C844484448444FC7C8444843E
:1032F0000104010402140408D4C200001FF81008DD
:10330000100810081FF81008100810081FF81008FF
:1033100010082008200840288010A3AC00000000FE
:10332000000000000000000000000000000000009D
:10333000000030003000100020000000B5CD08086B
:10334000083C0BE0122012203220322053FE922043
:10335000121012101212120A128A13261212CDB76C
:10336000008000800880048024801080108000800D
:10337000FFFE010001400220041008083004C004D0
:10338000CBBC00003FF8210821083FF821082108A4
:103390003FF820080100088848844812481287F046
:1033A0000000B9CA1040104010401080FEFE110805
:1033B000128810887C8844504450442044507C88B3
:1033C00045040202CFE7020002000420082010405A
:1033D0003F800108020804101FE000400080010047
:1033E00006001800E000A1A300000000000000009B
:1033F0000000000000000000000000001800240091
:103400002400180000000000B4F3010001000100D6
:1034100001000100FFFE0100010002800280044063
:103420000440082010102008C006D1A72208110867
:10343000111000207FFE400280041FE00040018048
:10344000FFFE01000100010005000200C9FA0100B1
:103450001100110011003FFC21004100810001001A
:103460003FF80100010001000100FFFE0000B5E788
:103470000100010001003FF82108210821083FF860
:103480002108210821083FF8210A0102010200FE5B
:10349000D7D300007FF80010002000400180010019
:1034A000FFFE010001000100010001000100050014
:1034B0000200C9CC020001007FFC082004403FF854
:1034C00020082448282837D82448244827C820081A
:1034D00020282010C6CC204820443BFE20404040FD
:1034E0007BFCA2442244FBFC2244224423FC2A44C9
:1034F000324422540208BEBB0100410023F02410D4
:10350000002017FC104410442FFE2044E04427FC08
:103510002044204021400080D6D8001000F83F0011
:103520000100FFFE01001FF011101FF011101FF02D
:1035300001003FF80100FFFE0000C1BF00001FF0C6
:1035400010101FF01010FFFE00001FF011101FF0F0
:1035500011101FF001001FF001007FFC00000000AF
:10356000000000000000000000000000000000005B
:103570000000000000000000000000000000B4BFD8
:10358000000000000000020100063FC00C3FE018F0
:1035900003001002003336603726203E66301C647C
:1035A0003018642031FEE03F1FC01C0C00000C00EE
:1035B0000704003E07F00001C0000000000000000A
:1035C0000000000000000000C9AB00000000000087
:1035D00001FE0003E3000703000C03001C3F003B57
:1035E000FFC03F30600C30200C30200C10200C103D
:1035F000600FFFC0083F000800000800600E3FE0B9
:1036000007FC0000000000000000000000000000B7
:103610000000CCEE00000000000000030000FFE00E
:103620000C07F00C06000CFF803FF0E01FC0600CA0
:10363000FE300CCC3004F83004FF2004C0201FFE04
:10364000603EC06001FFF001FFF0006060004000DC
:10365000000000000000000000000000B3E40000D3
:103660000000000000200000300007FFF03FFFE0F6
:103670000300000601800C01800801C01807E00F5C
:10368000FE7007E0000206000604000404000404C3
:10369000000C06700C07E0000000000000000000B5
:1036A000000000000000B2E2000000000000000086
:1036B0003039FC301FCC300706B00F06F01907B0C8
:1036C0003137B03136F01F27F00167F001E5F00126
:1036D000E1F00041F00CF8B03CD830008C300080B4
:1036E00030000000000000000000000000000000AA
:1036F000CAD40000000000000803600C03700C0333
:1037000030003FE0003F800801003C0180047F80E2
:10371000047D800C00800C10C00C10C00C18400CF4
:103720001C600F7E6006703000003000000000005A
:1037300000000000000000000000CEC400000000F7
:10374000C00000E00000700001FFE01FFFC0180192
:1037500000000300000600000E00001C000E180010
:1037600007300001E00000F00000FC00018F0003C2
:1037700003C00201E00000000000000000000000A3
:1037800000000000D7D6000000000000002000006C
:103790003F0031FFE03FC02038003030FE2033C60C
:1037A00060100200000C00001800001800000C005F
:1037B00007FFE03FFFE0000400000C00000C0000E9
:1037C0000000000000000000000000000000CFD456
:1037D00000000000000007FF000F03C00C00401FA6
:1037E000F8601800600800400E01C007FF000000EC
:1037F000000184000184001987800F8CE0078C2071
:1038000000CC0003FFE01FFFC0000000000000002C
:103810000000000000000000CABE00000000000020
:103820000E00001FFFC0007FE0000000000000004D
:103830000000000000003FC03FFFE000300000300B
:10384000000030000613000C13C00C18F01818000C
:103850001818000000000000000000000000000038
:103860000000CDBC00000000000007FF000F038037
:103870001CC0C019FC6011C66033062033E6303628
:10388000FF30301FF030703030FC30339F30360066
:103890002010E060187C400E01C003FF00003800DB
:1038A000000000000000000000000000C6AC0000A6
:1038B0000000000008180018080018080018080088
:1038C000180C201FFFF01FF8001800001000001057
:1038D000F8001FFE001E0300100300100300100379
:1038E00000100300180200000000000000000000AB
:1038F000000000000000CFD400000000000007FF1F
:10390000000F03C00C00401FF86018006008004062
:103910000E01C007FF0000000001840001840019AF
:1039200087800F8CE0078C2000CC0003FFE01FFF96
:10393000C0000000000000000000000000000000C7
:10394000CABE0000000000000E00001FFFC0007F84
:10395000E0000000000000000000000000003FC088
:103960003FFFE00030000030000030000613000C84
:1039700013C00C18F0181800181800000000000000
:1039800000000000000000000000B4A500000000DE
:1039900000000601800FC1801E6180304FC020CF23
:1039A000E0078D303FC9303379303379303FFB3019
:1039B00037FF203267E03FE3803FE3C0326360328D
:1039C00067F0304FB0000000000000000000000071
:1039D00000000000C3FE0000000000000030C00036
:1039E000FFF00C79C00C1F800C7FE03FE0600CC042
:1039F000300CFC3004C03007C0301E60603C3FC05B
:103A0000041C00047FE000FFE00030C000606000A4
:103A10000000000000000000000000000000CAE4F8
:103A20000000000000000C03800C0FC0081C703F59
:103A300070001F9FC0101FC0100000367C3017E6BA
:103A4000301FE3B0067FB00277F007E3F03F7FF06E
:103A50001336F0032630032630000000000000007B
:103A60000000000000000000C8EB000000000000A3
:103A700006000003800001C00000E00000700000AC
:103A8000780000CC0000C60001830003018007001D
:103A9000C00600E00C007018003018000030000074
:103AA0000000000000000000000000000000000016
:103AB0000000BEBB0000000030000030002070009D
:103AC000707FC038C1801DC18009830003FFF800EA
:103AD000C6180006180006180BFFFE0C06181C0678
:103AE0001818061819FFF830060070060060060066
:103AF000200600003E00003C00000000D6D8000078
:103B0000000000000000E01FFFF00FF800001800A8
:103B10007FFFFE7FFFFE00180000180007FFE00691
:103B2000186007FFE007FFE006186007FFE007FFE7
:103B3000E00018000FFFF80FFFF80018003FFFFC2F
:103B40003FFFFC000000C1BF00000000000007FFB5
:103B5000E007FFE004002007FFE004002007FFE08B
:103B60000000007FFFFE7FFFFE0000000FFFF00C53
:103B700018300FFFF00C18300FFFF000180000187D
:103B8000000FFFF00018003FFFFC3FFFFC000000AB
:103B9000A3BA0000000000000000000000000000C8
:103BA0000000000000000000000000000000000015
:103BB0000000000000000F00000F00000F000000D8
:103BC00000000000000000000F00000F00000F00C8
:103BD00000000000000000000000BFCB000000005B
:103BE00000000018000018003FFFFC3FFFFC001819
:103BF0000000180000180007FFE0040060040060E7
:103C000004006004006007FFE000660000C60000DA
:103C1000C60001C60003860C07060C3E07FC18030D
:103C2000F80000000000000000000000000000009C
:103C30000000000000000000000000000000000084
:103C40000000000000000000000000000000000074
:103C50000000000000000000000000000000000064
:103C60000000000000000000000000000000FFFF56
:103C7000FFFFFFFFFFFFFFFFFFFFFFFFFFFFFFFF54
:103C8000FFFFFFFFFFFFFFFFFFFFFFFFFFFFFFFF44
:103C9000FFFFFFFFFFFFFFFFFFFFFFFFFFFFFFFF34
:103CA000FFFFFFFFFFFFFFFFFFFFFFFFFFFFFFFF24
:103CB000FFFFDEFFDFFFDFFFDFFFBBD6FFFFFFFF02
:103CC000FFFFBFFFFFFFFFFFFFFFFFFFFFFFFFFF44
:103CD000FFFFFFFFFFFFFFFFFFFFFFFFFFFFFFF7FC
:103CE000FFFFFFFFFFFFDFFFFFFFFFFFFFFFFFFF04
:103CF000FFFFFFFFFFFFFFFFFFFFFFFFFFFFFFFFD4
:103D0000FFFFFFFFFFFFFFFFFFFFFFFFFFFFFFFFC3
:103D1000FFFFFFFFFFFFFFFFFFFFFFFFFFFFFFFFB3
:103D2000FFFFFFFFFFFFFFFFFFFFFFFFFFFFFFFFA3
:103D3000FFFFFFFFFFFFFFFFFFFFFFFFFFFFFFFF93
:103D4000FFFFFFFFFFFFFFFFFFFFFFFFFFFFFFFF83
:103D5000FFFFFFFFFFFFFFFFFFFFFFFFFFFFFFFF73
:103D6000FFFFFFFFFFFFFFFFFFFFFFFFFFFFFFFF63
:103D7000FFFFFFFFFFFFFFFFFFFFFFFFFFFFFFFF53
:103D8000FFFFFFFFFFFFFFFFFFFFFFFFFFFFFFFF43
:103D9000FFFFFFFFFFFFFFFFFFFFFFFFFFFFFFFF33
:103DA000FFFFFFFFFFFFFFFFFFFFFFFFFFFFDFF74B
:103DB000FFFFFFFFFFFFFFFF5ACE851038A5FFFF73
:103DC000FFFFFFFFFFFFBFFFDFFFDFFFDFFFDFF7CB
:103DD000FFFFFFFFDFFFFFFFFFFFFFFFDFFFFFFF33
:103DE000FFFFDFFFDFFFFFFFFFFFFFFFFFFFFFFF23
:103DF000FFFFFFFFFFFFFFFFFFFFFFFFFFFFFFFFD3
:103E0000FFFFFFFFFFFFFFFFFFFFFFFFFFFFFFFFC2
:103E1000FFFFFFFFFFFFFFFFFFFFFFFFFFFFFFFFB2
:103E2000FFFFFFFFFFFFFFFFFFFFFFFFFFFFFFFFA2
:103E3000FFFFFFFFFFFFFFFFFFFFFFFFFFFFFFFF92
:103E4000FFFFFFFFFFFFFFFFFFFFFFFFFFFFFFFF82
:103E5000FFFFFFFFFFFFFFFFFFFFFFFFFFFFFFFF72
:103E6000FFFFFFFFFFFFFFFFFFFFFFFFFFFFFFFF62
:103E7000FFFFFFFFFFFFFFFFFFFFFFFFFFFFFFFF52
:103E8000FFFFFFFFFFFFFFFFFFFFFFFFFFFFFFFF42
:103E9000FFFFFFFFFFFFFFFFFFFFFFFFFFFFFFFF32
:103EA000FFFFFFFFFFFFFFFFFFFFFFFFFFFFFFFF22
:103EB000FFFFFEFFFEFFFFFFB9B54800D139FFFF4E
:103EC000BEEFFEFFBDF7FFFFDFFFDFFFFFFFFFFFDE
:103ED000FFFFDFFFFFFFFFFFDFF7FFFFDFFFFFF762
:103EE000FFFFFFFFFFFFFFFFFFFFDFFFFFFFFFFF02
:103EF000FFFFFFFFFFFFFFFFFFFFFFFFFFFFFFFFD2
:103F0000FFFFFFFFFFFFFFFFFFFFFFFFFFFFFFFFC1
:103F1000FFFFFFFFFFFFFFFFFFFFFFFFFFFFFFFFB1
:103F2000FFFFFFFFFFFFFFFFFFFFFFFFFFFFFFFFA1
:103F3000FFFFFFFFFFFFFFFFFFFFFFFFFFFFFFFF91
:103F4000FFFFFFFFFFFFFFFFFFFFFFFFFFFFFFFF81
:103F5000FFFFFFFFFFFFFFFFFFFFFFFFFFFFFFFF71
:103F6000FFFFFFFFFFFFFFFFFFFFFFFFFFFFFFFF61
:103F7000FFFFFFFFFFFFFFFFFFFFFFFFFFFFFFFF51
:103F8000FFFFFFFFFFFFFFFFFFFFFFFFFFFFFFFF41
:103F9000FFFFFFFFFFFFFFFFFFFFFFFFFFFFFFFF31
:103FA000FFFFFFFFFFFFFFFFFFFFFFFFFFFFBFF769
:103FB000FFFFFEFFFEFFDFF7778C0D007308D7735E
:103FC0005463157CD3737BCEFFFFFFFFFEFFFFFF23
:103FD000FFFFDFFFFFFFFFF7FFF7FFFFDFFFFFF749
:103FE000FFFFFFFFDEF7FFFFFFFFDFFFFFFFFFFF2A
:103FF000FFFFFFFFFFFFFFFFFFFFFFFFFFFFFFFFD1
:10400000FFFFFFFFFFFFFFFFFFFFFFFFFFFFFFFFC0
:10401000FFFFFFFFFFFFFFFFFFFFFFFFFFFFFFFFB0
:10402000FFFFFFFFFFFFFFFFFFFFFFFFFFFFFFFFA0
:10403000FFFFFFFFFFFFFFFFFFFFFFFFFFFFFFFF90
:10404000FFFFFFFFFFFFFFFFFFFFFFFFFFFFFFFF80
:10405000FFFFFFFFFFFFFFFFFFFFFFFFFFFFFFFF70
:10406000FFFFFFFFFFFFFFFFFFFFFFFFFFFFFFFF60
:10407000FFFFFFFFFFFFFFFFFFFFFFFFFFFFFFFF50
:10408000FFFFFFFFFFFFFFFFFFFFFFFFFFFFFFFF40
:10409000FFFFFFFFFFFFFFFFFFFFFFFFFFFFFFFF30
:1040A000FFFFFFFFFFFFFFFFFFFFFFFFFFFFFFFF20
:1040B000FFFFFFFFFFFFBFF7344254083900350010
:1040C000150013002F08504AFFFFFEFFFEFFFFF709
:1040D000FFFFFFFFFBDEBACEFFF7FFFFFFFFFFFF93
:1040E000FFFFFFFFFFFFFFFFFFFFDFFFFFFFFFFF00
:1040F000FFFFFFFFFFFFFFFFFFFFFFFFFFFFFFFFD0
:10410000FFFFFFFFFFFFFFFFFFFFFFFFFFFFFFFFBF
:10411000FFFFFFFFFFFFFFFFFFFFFFFFFFFFFFFFAF
:10412000FFFFFFFFFFFFFFFFFFFFFFFFFFFFFFFF9F
:10413000FFFFFFFFFFFFFFFFFFFFFFFFFFFFFFFF8F
:10414000FFFFFFFFFFFFFFFFFFFFFFFFFFFFFFFF7F
:10415000FFFFFFFFFFFFFFFFFFFFFFFFFFFFFFFF6F
:10416000FFFFFFFFFFFFFFFFFFFFFFFFFFFFFFFF5F
:10417000FFFFFFFFFFFFFFFFFFFFFFFFFFFFFFFF4F
:10418000FFFFFFFFFFFFFFFFFFFFFFFFFFFFFFFF3F
:10419000FFFFFFFFFFFFFFFFFFFFFFFFFFFFFFFF2F
:1041A000FFFFFFFFFFFFFFFFFFFFFFFFFFFFDFF747
:1041B000FFFFDFF7DFD6754A13007B083D001C00C8
:1041C0003E081D0816080F193EDFFEFFDDFFFFF752
:1041D000FFFF1DF78F8B2D739EF7FFFFFFFFDFFFA4
:1041E0009EFF7AD6FBE6FFFFFFFFFFFFFFFFFFFF0B
:1041F000FFFFFFFFFFFFFFFFFFFFFFFFFFFFFFFFCF
:10420000FFFFFFFFFFFFFFFFFFFFFFFFFFFFFFFFBE
:10421000FFFFFFFFFFFFFFFFFFFFFFFFFFFFFFFFAE
:10422000FFFFFFFFFFFFFFFFFFFFFFFFFFFFFFFF9E
:10423000FFFFFFFFFFFFFFFFFFFFFFFFFFFFFFFF8E
:10424000FFFFFFFFFFFFFFFFFFFFFFFFFFFFFFFF7E
:10425000FFFFFFFFFFFFFFFFFFFFFFFFFFFFFFFF6E
:10426000FFFFFFFFFFFFFFFFFFFFFFFFFFFFFFFF5E
:10427000FFFFFFFFFFFFFFFFFFFFFFFFFFFFFFFF4E
:10428000FFFFFFFFFFFFFFFFFFFFFFFFFFFFFFFF3E
:10429000FFFFFFFFFFFFFFFFFFFFFFFFFFFFFFFF2E
:1042A000FFFFFFFFFFFFFFFFFFFFFFFFFFFFFFFF1E
:1042B000FFFF9EEF104212005C083E005F003D00D1
:1042C0001F001F081900911016843DE7FFFFFFFF34
:1042D0007EFFB5CC8D924B7A39E6DFFFBFFF36CD3E
:1042E0006E8BA741108C9EF7FFFFFFFFDFFFFFFFE4
:1042F000FFFFFFFFFFFFFFFFFFFFFFFFFFFFFFFFCE
:10430000FFFFFFFFFFFFFFFFFFFFFFFFFFFFFFFFBD
:10431000FFFFFFFFFFFFFFFFFFFFFFFFFFFFFFFFAD
:10432000FFFFFFFFFFFFFFFFFFFFFFFFFFFFFFFF9D
:10433000FFFFFFFFFFFFFFFFFFFFFFFFFFFFFFFF8D
:10434000FFFFFFFFFFFFFFFFFFFFFFFFFFFFFFFF7D
:10435000FFFFFFFFFFFFFFFFFFFFFFFFFFFFFFFF6D
:10436000FFFFFFFFFFFFFFFFFFFFFFFFFFFFFFFF5D
:10437000FFFFFFFFFFFFFFFFFFFFFFFFFFFFFFFF4D
:10438000FFFFFFFFFFFFFFFFFFFFFFFFFFFFFFFF3D
:10439000FFFFFFFFFFFFFFFFFFFFFFFFFFFFFFFF2D
:1043A000FFFFFFFFFFFFFFFFFFFFFFFFFFFFFFFF1D
:1043B000FEFFFDDECD1818081F081F001E003E007E
:1043C0003F001E003C0834082D08F162FBC5BEF713
:1043D0003AEE2C92EFBA6C9AAC8232A4AB6A2A7293
:1043E000C961C85176BDFFFFDEF7DFF7FFFFFFFFB2
:1043F000FFFFFFFFFFFFFFFFFFFFFFFFFFFFFFFFCD
:10440000FFFFFFFFFFFFFFFFFFFFFFFFFFFFFFFFBC
:10441000FFFFFFFFFFFFFFFFFFFFFFFFFFFFFFFFAC
:10442000FFFFFFFFFFFFFFFFFFFFFFFFFFFFFFFF9C
:10443000FFFFFFFFFFFFFFFFFFFFFFFFFFFFFFFF8C
:10444000FFFFFFFFFFFFFFFFFFFFFFFFFFFFFFFF7C
:10445000FFFFFFFFFFFFFFFFFFFFFFFFFFFFFFFF6C
:10446000FFFFFFFFFFFFFFFFFFFFFFFFFFFFFFFF5C
:10447000FFFFFFFFFFFFFFFFFFFFFFFFFFFFFFFF4C
:10448000FFFFFFFFFFFFFFFFFFFFFFFFFFFFFFFF3C
:10449000FFFFFFFFFFFFFFFFFFFFFFFFFFFFFFF734
:1044A000FFFFFFFFDFFFFFFFFFFFFFFFFFFFFFFF3C
:1044B000BDF7DFF7F45A13003D081F001F001F006F
:1044C0001F001F003E003C0058005400710039B529
:1044D000D4B30EB2EDC9AFE22CB2CA99EFB26B8A77
:1044E0008B822D839EF75DE7DBDE1DEFDFFFDFFFB5
:1044F000FFFFFFFFFFFFFFFFFFFFFFFFFFFFDFFFEC
:10450000FFFFFFFFFFFFFFFFFFFFFFFFFFFFFFFFBB
:10451000FFFFFFFFDFFFFFFFFFFFFFFFFFFFFFFFCB
:10452000FFFFFFFFFFFFFFFFFFFFFFFFFFFFFFFF9B
:10453000FFFFFFFFFFFFFFFFFFFFFFFFFFFFFFFF8B
:10454000FFFFFFFFFFFFFFFFFFFFFFFFFFFFFFFF7B
:10455000FFFFFFFFFFFFFFFFFFFFFFFFFFFFFFFF6B
:10456000FFFFFFFFFFFFFFFFFFFFFFFFFFFFFFFF5B
:10457000FFFFFFFFFFFFFFFFFFFFFFFFFFFFFFFF4B
:10458000FFFFFFFFFFFFFFFFFFFFFFFFFFFFFFFF3B
:10459000FFFFFFFFFFFFFFFFFFFFFFFFFFFFFFFF2B
:1045A000FFFFFFFF3CEF18C6FFFFFFFFFFFF9FF776
:1045B000FEFFFEF7FDB512005D081F003E001C0067
:1045C0003D003E003F003E003C00390057084620B9
:1045D000AF9252D36ECACEC24FB3AC92EA7125519C
:1045E0004549A2200742E2106108E320C741EC5A86
:1045F000518CD7BD39C63CE7FFFFDFFFFFFFFFFF50
:10460000FFFFDFFFFFFFFFFFFFFFFFFFFFFFDFFFFA
:10461000FFFFFFFFFFFFFFFFDFFFFFFFFFFFFFFFCA
:10462000FFFFFFFFFFFFFFFFFFFFFFFFFFFFFFFF9A
:10463000FFFFFFFFFFFFFFFFFFFFFFFFFFFFFFFF8A
:10464000FFFFFFFFFFFFFFFFFFFFFFFFFFFFFFFF7A
:10465000FFFFFFFFFFFFFFFFFFFFFFFFFFFFFFFF6A
:10466000FFFFFFFFFFFFFFFFFFFFFFFFFFFFFFFF5A
:10467000FFFFFFFFFFFFFFFFFFFFFFFFFFFFFFFF4A
:10468000FFFFFFFFFFFFFFFFFFFFFFFFFFFFFFFF3A
:10469000FFFFFFFFFFFFFFFFFFFFFFFFFFFFFFFF2A
:1046A0009EF7FFFFFCE6C74172947ADEDFFFFFFF53
:1046B000DDF7FFF7956B75081C001E001E003D001E
:1046C0003D003D001F001F001D005A0896108A592A
:1046D00011A3F0B289810559044161200008000846
:1046E0000008000020000000000000000000200082
:1046F000000000000000E318C7392D63D39C7ACE78
:10470000BFF7FFFFFFFFFFFFFFFFFFFFFFFFFFFF01
:10471000FFFFFFFFFFFFFFFFFFFFDFFFDFFFFFFFE9
:10472000FFFFFFFFFFFFFFFFFFFFFFFFFFFFFFFF99
:10473000FFFFFFFFFFFFFFFFFFFFFFFFFFFFFFFF89
:10474000FFFFFFFFFFFFFFFFFFFFFFFFFFFFFFFF79
:10475000FFFFFFFFFFFFFFFFFFFFFFFFFFFFFFFF69
:10476000FFFFFFFFFFFFFFFFFFFFFFFFFFFFFFFF59
:10477000FFFFFFFFFFFFFFFFFFFFFFFFFFFFFFFF49
:10478000FFFFFFFFFFFFFFFFFFFFFFFFFFFFFFFF39
:10479000FFFFFFFFFFFFFFFFFFFFFFFFFFFFFFFF29
:1047A000FFFFDFFFDFFFCF836A6A8B7257D5FFFF02
:1047B000FFFFB88C4F0059005F081F001E001F004C
:1047C0001E003D003E001E003B087508AF08AA59B8
:1047D000E748033000200010000020008110200076
:1047E0004000000000004100200000000000000028
:1047F000200041080000000000000000000041000F
:1048000045214D63F8BD9EEFFFFFFFFFFFFFFFFF58
:10481000FFFFFFFFDFFFFFFFFFFFFFFFFFFFFFFFC8
:10482000FFFFFFFFFFFFFFFFFFFFFFFFFFFFFFFF98
:10483000FFFFFFFFFFFFFFFFFFFFFFFFFFFFFFFF88
:10484000FFFFFFFFFFFFFFFFFFFFFFFFFFFFFFFF78
:10485000FFFFFFFFFFFFFFFFFFFFFFFFFFFFFFFF68
:10486000FFFFFFFFFFFFFFFFFFFFFFFFFFFFFFFF58
:10487000FFFFFFFFFFFFFFFFFFFFFFFFFFFFFFFF48
:10488000FFFFFFFFFFFFFFFFFFFFFFFFFFFFFFFF38
:10489000FFFFFFFFFFFFFFFFFFFFFFFFFFFFFFFF28
:1048A000FFF7FFFFFFFFB3AC8C820FABAA8932B5D5
:1048B000DFE6522957005E005F001F001E001F0048
:1048C0001E005D085B08580853082D0048000108C9
:1048D000010800080008400040000000000021001E
:1048E0000000210000000100000000002100000085
:1048F0000000000000002008200800000008000060
:10490000200000000000663175ADFFFFFEFFDFFFF5
:10491000DFFFFFFFFFFFDFFFDFFFFFFFFFFFFFFF07
:10492000FFFFFFFFFFFFFFFFFFFFFFFFFFFFFFFF97
:10493000FFFFFFFFFFFFFFFFFFFFFFFFFFFFFFFF87
:10494000FFFFFFFFFFFFFFFFFFFFFFFFFFFFFFFF77
:10495000FFFFFFFFFFFFFFFFFFFFFFFFFFFFFFFF67
:10496000FFFFFFFFFFFFFFFFFFFFFFFFFFFFFFFF57
:10497000FFFFFFFFFFFFFFFFFFFFFFFFFFFFFFFF47
:10498000FFFFFFFFFFFFFFFFFFFFFFFFFFFFFFFF37
:10499000FFFFFFFFFFFFFFFFFFFFFFFFFFFFFFFF27
:1049A000FFFFDFF7FFFFDCFE4B8AEFBAF0D2A98AE8
:1049B0006F7A301819089F081E007F003E003E00E5
:1049C0003D00390833082C0846002300030021006D
:1049D0002100200000000000200020080008210025
:1049E00000000000000000084110C3202429C64137
:1049F000CA62CA620F8C6D7BC22024310B6BA85235
:104A0000A11800002108000020002B63FEFFFFFF1B
:104A1000FFFFDFFFFFFFFFFFFFFFFFFFFFFFFFFFC6
:104A2000FFFFFFFFFFFFFFFFFFFFFFFFFFFFFFFF96
:104A3000FFFFFFFFFFFFFFFFFFFFFFFFFFFFFFFF86
:104A4000FFFFFFFFFFFFFFFFFFFFFFFFFFFFFFFF76
:104A5000FFFFFFFFFFFFFFFFFFFFFFFFFFFFFFFF66
:104A6000FFFFFFFFFFFFFFFFFFFFFFFFFFFFFFFF56
:104A7000FFFFFFFFFFFFFFFFFFFFFFFFFFFFFFFF46
:104A8000FFFFFFFFFFFFFFFFFFFFFFFFFFFFFFFF36
:104A9000FFFFFFFFFFFFFFFFFFFFFFFFFFFFFFFF26
:104AA000FFFFBEF7FFFF9FFF0FAB4DB2B0DA0FD392
:104AB000CD91AE48331839081C007E081C007B08D5
:104AC00036000F00080002002000200020004100F6
:104AD0002000000021002000000000000008A220AB
:104AE000A5410B6B0F8C12AD16CE98E6FAEE7CFF4B
:104AF0001BF7BDFF99E60A734B7BD9EE7CFF79FF6C
:104B000076DE895A6110CB5A28420000E639FBDE76
:104B1000FFFFFFFFDFFFFFFFFFFFFFFFFFFFFFFFC5
:104B2000FFFFFFFFFFFFFFFFFFFFFFFFFFFFFFFF95
:104B3000FFFFFFFFFFFFFFFFFFFFFFFFFFFFFFFF85
:104B4000FFFFFFFFFFFFFFFFFFFFFFFFFFFFFFFF75
:104B5000FFFFFFFFFFFFFFFFFFFFFFFFFFFFFFFF65
:104B6000FFFFFFFFFFFFFFFFFFFFFFFFFFFFFFFF55
:104B7000FFFFFFFFFFFFFFFFFFFFFFFFFFFFFFFF45
:104B8000FFFFFFFFFFFFFFFFFFFFFFFFFFFFFFFF35
:104B9000FFFFFFFFFFFFFFFFFFFFFFFFFFFFDFFF45
:104BA000FBE655AD51942E8BCA81ECA90DCA70E27B
:104BB00011DBD1AA30491308BC181B003C1054006B
:104BC0004C00430020000000020002000100000031
:104BD000000000000000A318494A308CB5BD98EED3
:104BE0001AFF5BFF7BFF59FF7AFF19F739FFFAF6CF
:104BF000FAF6D9EEC9726B837CFFFAF6FAF617F76C
:104C000059FF5BFF0C73663155AD34A50219A6310F
:104C10009AD6FFFFFFFFFFFFFFFFFFFFFFFFFFFF32
:104C2000FFFFFFFFFFFFFFFFFFFFFFFFFFFFFFFF94
:104C3000FFFFFFFFFFFFFFFFFFFFFFFFFFFFFFFF84
:104C4000FFFFFFFFFFFFFFFFFFFFFFFFFFFFFFFF74
:104C5000FFFFFFFFFFFFFFFFFFFFFFFFFFFFFFFF64
:104C6000FFFFFFFFFFFFFFFFFFFFFFFFFFFFFFFF54
:104C7000FFFFFFFFFFFFFFFFFFFFFFFFFFFFFFFF44
:104C8000FFFFFFFFFFFFFFFFFFFFFFFFFFFFDFFF54
:104C9000FFFFFFFFFFFFFFF7FFFF7ADE52ACEC8262
:104CA000CA81AB912DA26EBAB1DA2EC2EBA191DA14
:104CB0008FDAB0D2D3BACF48511874083308040041
:104CC0000300020020008200000001000200210019
:104CD000E3182C6B12AD77DE5AFF19FF39FFF8FE8F
:104CE000F8FEF9FEB8FED8FEB8F6F8FED7F638F7AB
:104CF0007AFF8C830C7B3CFFB9F6F9F619FFD8FEDE
:104D0000F8FE18FF7AFF8C8302299ADE1CEF8B7B5A
:104D1000E962FBE6FFFFBFFFFFFFDFF7FFFFFFFFDB
:104D2000FFFFFFFFFFFFFFFFFFFFFFFFFFFFFFFF93
:104D3000FFFFFFFFFFFFFFFFFFFFFFFFFFFFFFFF83
:104D4000FFFFFFFFFFFFFFFFFFFFFFFFFFFFFFFF73
:104D5000FFFFFFFFFFFFFFFFFFFFFFFFFFFFFFFF63
:104D6000FFFFFFFFFFFFFFFFFFFFFFFFFFFFFFFF53
:104D7000FFFFFFFFFFFFFFFFFFFFFFFFFFFFFFFF43
:104D8000FFFFFFFFFFFFFFFFFFFFFFFFFFFFFFFF33
:104D9000FFFFDFFF5DEFB3ACCC82CA792C9AADAADE
:104DA00031D3B0DAD1DAD1DA70E26FD2AAA170DAF7
:104DB0006FE28EDA2EB214A30E392C082B000300FA
:104DC00002000100610000006108000021080008E5
:104DD00029526D7B54BD1BF73BFF3AFFD9F639FFD3
:104DE000D8F6F9FEF9FEF9FEF9FED8F6F8FE5AFFFC
:104DF00094C5275AB9EE1AFFB9EE7BFFD8F639FFF2
:104E00005AFFD8EE5AFFF9EEA96244313CEF9AFFFF
:104E1000F5CD54B5BFFFFFFFDFFFFFFFFFFFFFFF33
:104E2000FFFFFFFFFFFFFFFFFFFFFFFFFFFFFFFF92
:104E3000FFFFFFFFFFFFFFFFFFFFFFFFFFFFFFFF82
:104E4000FFFFFFFFFFFFFFFFFFFFFFFFFFFFFFFF72
:104E5000FFFFFFFFFFFFFFFFFFFFFFFFFFFFFFFF62
:104E6000FFFFFFFFFFFFFFFFFFFFFFFFFFFFFFFF52
:104E7000FFFFFFFFFFFFFFFFFFFFFFFFFFFFFFFF42
:104E8000FFFFFFFFFFFFFFFFFFFFFFFFFFFFFFF73A
:104E9000FFF7FFFF39D6A851A97130BB6EBAECA954
:104EA000CDC150E22FDA50DA91EAB0DAABA150DA94
:104EB0004EE26DDA0BBAEFAA49492308210022001D
:104EC000010021000000A118C962B1A474C575C514
:104ED0000F948962E330033150941BF73CF719F7C4
:104EE000D8F6F8FEF8FEB8F619FFD8F6B7F65BFF6D
:104EF0000A7353BD3AFF39FFD9F6D9F699EEF2B4E9
:104F000012B577DE5BFF5BFFD9EEA541EB6A9BFF35
:104F100019EFB19CDBE6FFFFFFFFFFFFFFFFFFFF85
:104F2000FFFFFFFFFFFFFFFFFFFFFFFFFFFFFFFF91
:104F3000FFFFFFFFFFFFFFFFFFFFFFFFFFFFFFFF81
:104F4000FFFFFFFFFFFFFFFFFFFFFFFFFFFFFFFF71
:104F5000FFFFFFFFFFFFFFFFFFFFFFFFFFFFFFFF61
:104F6000FFFFFFFFFFFFFFFFFFFFFFFFFFFFFFFF51
:104F7000FFFFFFFFFFFFFFFFFFFFFFFFFFFFFFFF41
:104F8000FFFFFFFFFFFFFFFFFFFFFFFFFFFFFFF739
:104F9000FFFFFFFFFFFF1CEF93B42A7A0B828DB255
:104FA0006EBAACB92BB1ADC18CB90DBAEBA950DA60
:104FB0006FDA4FE38BAAA3500010000060002000BE
:104FC00061088110E22874BD9BFF39FF59FF19FF6A
:104FD0007BFF7BFF77DE4B732010E74138CE5BFF12
:104FE0003AFF77EE19FF19FFD8F6D8F67BFF54BDCC
:104FF0000A733AFF18F7F8F63AFF70A46D8B509CCD
:105000008C8388622B7316D67CFF58DE4018B0A4C0
:105010009CFF37CE75B5DFFFFFFFFFFFFFFFFFFFF0
:10502000FFFFFFFFFFFFFFFFFFFFFFFFFFFFFFFF90
:10503000FFFFFFFFFFFFFFFFFFFFFFFFFFFFFFFF80
:10504000FFFFFFFFFFFFFFFFFFFFFFFFFFFFFFFF70
:10505000FFFFFFFFFFFFFFFFFFFFFFFFFFFFFFFF60
:10506000FFFFFFFFFFFFFFFFFFFFFFFFFFFFFFFF50
:10507000FFFFFFFFFFFFFFFFFFFFFFFFFFFFFFFF40
:10508000FFFFFFFFFFFFFFFFFFFFFFFFFFFFFFFF30
:10509000FFFFFFFFFFFFFFFFFFFFDBE6D3AC4A7A16
:1050A0004B8A10C312E32FD20ECA4EC28AA98DC1F9
:1050B0002DB26B9AC3402118210840080000E2205D
:1050C000CA5A895AF5CD7BFF19FF18FFD7F638FF6A
:1050D000D7F6F7F619F79BFF53B54329C11873BDEF
:1050E0009CFF19FFF8FE39FFD8FE19FF19FF2C733A
:1050F000D5CD19F7F8F67AFFAC8B70ACDBFE3BFF31
:105100005BFF1AF7F1AC26522F943BFFB2A4C862A2
:10511000F9EEB9E67094FFFFFFFFBEF7FFFFFFFF58
:10512000FFFFFFFFFFFFFFFFFFFFFFFFFFFFFFFF8F
:10513000FFFFFFFFFFFFFFFFFFFFFFFFFFFFFFFF7F
:10514000FFFFFFFFFFFFFFFFFFFFFFFFFFFFFFFF6F
:10515000FFFFFFFFFFFFFFFFFFFFFFFFFFFFFFFF5F
:10516000FFFFFFFFFFFFFFFFFFFFFFFFFFFFFFFF4F
:10517000FFFFFFFFFFFFFFFFFFFFFFFFFFFFFFFF3F
:10518000FFFFFFFFFFFFFFFFFFFFFFFFFFFFDFFF4F
:10519000DFFFDFFFFFFFFFFFFFFFDFFFBFFF1CF7AA
:1051A000D09BCA816FCAB1EA90DA0DCA4EDAD1D269
:1051B0006DA283300000420001000000094AD5BD05
:1051C000AC7B94C57BFFB7EEF8F6F8F6F8F6F7F689
:1051D00079FF18F7F8EEF8EE9BFF76D6C441C220AF
:1051E00054BD9BFFD7F6F8FE18FF19FFF5DD2F948D
:1051F0005BFF3AFF19F74E9CB0B4DAF61BFFD9F605
:10520000F9F619F71AFF1AF74B7BEA725CFF36D6EC
:105210001AEF5BF7919C5CEFFFFFFFFFFFFFFFFFC3
:10522000FFFFFFFFFFFFFFFFFFFFFFFFFFFFFFFF8E
:10523000FFFFFFFFFFFFFFFFFFFFFFFFFFFFFFFF7E
:10524000FFFFFFFFFFFFFFFFFFFFFFFFFFFFFFFF6E
:10525000FFFFFFFFFFFFFFFFFFFFFFFFFFFFFFFF5E
:10526000FFFFFFFFFFFFFFFFFFFFFFFFFFFFFFFF4E
:10527000FFFFFFFFFFFFFFFFFFFFFFFFFFFFFFFF3E
:10528000FFFFFFFFFFFFFFFFFFFFFFFFFFFFFFFF2E
:10529000FFFFFFFFFFFFDFFFFFFFFFFFFFFFFFFF3E
:1052A000DFFF4B82CCA990E2EDC1CCB98FE20FBBFE
:1052B00006510000A10020000000CB5AFBE62F8C15
:1052C000909C5AFFF8F619FFF9F61AF77BFFB8E63B
:1052D00016D698E65BFF5BFF1AF71AF7B8EEE320E5
:1052E000E64998E639FF18FFF8FED8F678EED8EED2
:1052F0003AF73BFF13BD0E9C3BFF3AFFD8F6F9FE91
:10530000F8FE39FFD8F6F9F63BFFAE8BAA6A1AF71A
:105310001AF79CFF33ADF6C5FFFFFFFFFFFFFFFF4E
:10532000FFFFFFFFFFFFFFFFFFFFFFFFFFFFFFFF8D
:10533000FFFFFFFFFFFFFFFFFFFFFFFFFFFFFFFF7D
:10534000FFFFFFFFFFFFFFFFFFFFFFFFFFFFFFFF6D
:10535000FFFFFFFFFFFFFFFFFFFFFFFFFFFFFFFF5D
:10536000FFFFFFFFFFFFFFFFFFFFFFFFFFFFFFFF4D
:10537000FFFFFFFFFFFFFFFFFFFFFFFFFFFFFFFF3D
:10538000FFFFFFFFFFFFFFFFFFFFFFFFFFFFFFFF2D
:10539000FFFFFFF7FFFFFFFFFFFFDFFFFFFFFEF74E
:1053A00038C6A861D0C2CDC1ABB110D3F0E24B8AF0
:1053B0000018600840002000C95A3AEFF4BD2B7372
:1053C0005BFF39FFB7EE39FF5AFF54BDEB6A695AEC
:1053D000495A285207528D8BD6D5FAFE5BFFF7C586
:1053E000853956DE39FFD7F618FF19FF1AFF38F74F
:1053F000F8EE78E68E8B1CFF1BFFD8F619FFB7FE80
:10540000F8FEB7FE18FFD8F63BFF3CFFCF8B2A73A0
:105410005BFF1AEF94BD94B5DEFFFFFFDFFFFFFFD8
:10542000FFFFFFFFFFFFFFFFFFFFFFFFFFFFFFFF8C
:10543000FFFFFFFFFFFFFFFFFFFFFFFFFFFFFFFF7C
:10544000FFFFFFFFFFFFFFFFFFFFFFFFFFFFFFFF6C
:10545000FFFFFFFFFFFFFFFFFFFFFFFFFFFFFFFF5C
:10546000FFFFFFFFFFFFFFFFFFFFFFFFFFFFFFFF4C
:10547000FFFFFFFFFFFFFFFFFFFFFFFFFFFFFFFF3C
:10548000FFFFFFFFFFFFFFFFFFFFFFFFFFFFFFFF2C
:10549000FFFFFFFFFFFFDFFFFFFFFFFFDFFF36CD57
:1054A000C9690FABEFBA2CAA2DB2CB992CA2C32895
:1054B0002008400800004852FBF63BFF2B7BF4D548
:1054C00019FFF8F639FFB7E66B830B73B6C5D8EE54
:1054D0003AFF98E653BD8C7BA539685233AD5BFF2C
:1054E0001AFFD9EEF9FED8F63AFFD7F6F8FE39FFE3
:1054F0003AFF4FA4D4D5F8FEB7F63AFF7CFF1BEF76
:105500001BF73BF71AEF7CFF5BFFB7F659FF0B73F6
:10551000EE8B5CFF58DED2A4FFFFFFF7FFF7FFFF23
:10552000FFFFFFFFFFFFFFFFFFFFFFFFFFFFFFF793
:10553000FFFFFFFFFEFFFFFFFFFFFFFFFFFFFFFF7C
:10554000FFFFFFFFFFFFFFFFFFFFFFFFFFFFFFFF6B
:10555000FFFFFFFFFFFFFFFFFFFFFFFFFFFFFFFF5B
:10556000FFFFFFFFFFFFFFFFFFFFFFFFFFFFFFFF4B
:10557000FFFFFFFFFFFFFFFFFFFFFFFFFFFFFFFF3B
:10558000FFFFFFFFFFFFFFFFFFFFFFFFFFFFFFFF2B
:10559000FFFFFFFFFFFFFFFFFFFF9EF7FBDE453131
:1055A00066418B726B7AED926F9B73BC6E930008B1
:1055B00041100000274299E63BFF95C58D835AFFB5
:1055C000D8EE39FF97E6297B11B53BFF5CFF3AFF28
:1055D000D8F6F9F65AFF7BFFF9EEB1A4064A275A2E
:1055E00016D61AFF1AFFD9F6F8FE39FFF8FEF8F6BC
:1055F00077EE2FA4F9F639FF7AFF36DECE8B274AF5
:105600004431E2206852D1A498E63AFFD8F6FAF67F
:10561000A96AB5CDD9EE709C1BE7FFFFFFFFFFFF26
:10562000FFFFFFFFFFFFFFFFFFFFFFFFFFFFFFFF8A
:10563000FFFFFFFFFFFFFFFF9194D29CDEFFFFFF04
:10564000FFFFDEFFFFFFFFFFFFFFFFFFFFFFFFFF8B
:10565000FFFFFFFFFFFFFFFFFFFFFFFFFFFFFFFF5A
:10566000FFFFFFFFFFFFFFFFFFFFFFFFFFFFFFFF4A
:10567000FFFFFFFFFFFFFFFFFFFFFFFFFFFFFFFF3A
:10568000FFFFFFFFFFFFFFFFFFFFFFFFFFFFDFFF4A
:10569000DFFFFFFFFFFFFFFFFFFFFFFF7DEF99CE63
:1056A0003CE77DEF5DEFFFFFFFFFFFFFAA4A000829
:1056B0000000E64198DE7BFF3BFF6C7BB5C55AFFDF
:1056C000D8EEF9EECD8B73C51AFF19FFD8F6D7FEC9
:1056D000D7FEF8FE19FFD8F619F73AFF1AF7509CD3
:1056E00064398C8398EE3AFFF8FED8FEB7F639FF9E
:1056F00012BD74C53BFF1AEF8F9C232920080000C0
:1057000000000000000000000A6BB8EE1AFFD9F696
:1057100016DEB4D5F9F694C50E8CF2A4D6BD7DF78D
:10572000BEFFFFFFFFFFFFFFFFFFFFFFFFFFFFFFCA
:10573000FFFFFFFFFFFF7EF7CF7B718CFBE6DFF7FC
:10574000DFFFFFFFDFFFDFFFFFFFFFFFDFFFFFFFE9
:10575000FFFFFFFFFFFFFFFFFFFFFFFFFFFFFFFF59
:10576000FFFFFFFFFFFFFFFFFFFFFFFFFFFFFFFF49
:10577000FFFFFFFFFFFFFFFFFFFFFFFFFFFFFFFF39
:10578000FFFFFFFFFFFFFFFFFFFFFFFFFFFFFFFF29
:10579000FFFFFFFFFFFFFFFFFFFFFFFFFFFFFFFF19
:1057A000DFFFFFFFFFFFFFFFFFFF79C6400020087C
:1057B000032137D63BFF5BFFB4CD2A735BFF19EFA4
:1057C0007BFF2F9CF1B45BFF19FFB7F6F7FEF8FEE5
:1057D000F8FED7FED7FE19FF19FFF9F619F73BF7C8
:1057E000B9E6A96A6762D8F619FFB7F65AFF18FF3B
:1057F000F1BCB9EE3BF74B6B600800000100000004
:1058000000000000610800000000A9623BF7F9FEFB
:1058100019FFF9FED8F67BFFF9F632B5F2AC0F842A
:1058200050947194D2A438CE9DF7FFFFDEFFFFFFA6
:10583000FFFFDFFFFFFFFCDEB29496B558D6FFFFF7
:10584000FFFFFFFFDFFFFFFFDFFFFFFFFFFFFFFFA8
:10585000FFFFFFFFFFFFFFFFFFFFFFFFFFFFFFFF58
:10586000FFFFFFFFFFFFFFFFFFFFFFFFFFFFFFFF48
:10587000FFFFFFFFFFFFFFFFFFFFFFFFFFFFFFFF38
:10588000FFFFFFFFFFFFFFFFFFFFFFFFFFFFFFFF28
:10589000FFFFFFFFFFFFFFFFFFFFFFFFFFFFFFFF18
:1058A000DFFFFFFFFFFFFFFFFFFF4D6B4108000021
:1058B00070945BFFF8FED8FE73C5D1AC3BF75AF786
:1058C00053BD2E947CFFF9FED8F639FFF7FEF8FEA3
:1058D000D7FE18FF39FF39FF3AFF3AFF19F79DFF4E
:1058E0005BF7B9E60E9C94CD5AFFB7F6F8FED7FEEB
:1058F000B8F63CFF8D7B200000006208220000000B
:10590000200000000000410800002008F2A4F9F681
:10591000F9FE19FF18FFB7F6D8F65AFF1AFF3AF743
:10592000B9E657DED6C5B1A4AE83B2A4DAE6BEFFAF
:10593000FFFFDFFFFFFF1CE7929496BDD6C5FFFF78
:10594000BFFFDFFF59CEF3A455B51CEFFFFFFFFFEC
:10595000FFFFFFFFFFFFFFFFFFFFFFFFFFFFFFFF57
:10596000FFFFFFFFFFFFFFFFFFFFFFFFFFFFFFFF47
:10597000FFFFFFFFFFFFFFFFFFFFFFFFFFFFFFFF37
:10598000FFFFFFFFFFFFFFFFFFFFFFFFFFFFFFFF27
:10599000FFFFDFFFFFFFFFFFFFFFFFFFFFFFFFFF37
:1059A000FFFFFFFFDFFFFFFF1CE7C3200000200019
:1059B000B5C55AFFD7F618FF31BDB8EEFAF698E62E
:1059C000CD8BB8EEF9F63AFF39FFD7F6D7FEF9F6E8
:1059D0005BFFF9F673BD6B7BC5414431A5410E8C6D
:1059E000B9E67CFF1AF71AFFB8F6F9FEF9FEB6F62B
:1059F0005AFF54BD00004000810800000000000074
:105A0000000000000000000041080000E7415AFFCC
:105A100019FFF8FED7FE19FF18FFB8F619FF39FF76
:105A2000F9F6D8EE3AFF7CFFD9EE33BDCD8B95BDAC
:105A30005CF7FFFFBFF75DEF719417CE70A438CE0F
:105A4000D2A4CE83B29CD6BD719475B5BEFFFFFFC4
:105A5000FFFFFFFFFFFFFFFFFFFFFFFFFFFFFFFF56
:105A6000FFFFFFFFFFFFFFFFFFFFFFFFFFFFFFFF46
:105A7000FFFFFFFFFFFFFFFFFFFFFFFFFFFFFFFF36
:105A8000FFFFFFFFFFFFFFFFFFFFFFFFFFFFFFFF26
:105A9000FFFFFFFFFFFFFFFFFFFFFFFFFFFFFFFF16
:105AA000FFFFFFFFFFFFDFFF929C21080000811036
:105AB000F6CD3AFFD7FE38FFB2CDB8EE3BFF6FA46C
:105AC000B4D55AFF39FFF8F618FF19FF19FF5BF735
:105AD00054B5274A00000000200000000000000824
