:100F5B00202020202020204F4B202020202020202C
:100F6B000020CAFDBEDDB0FCBDD3CAD5B4EDCEF3B7
:100F7B002000B4ABB8D0C6F7C9CFC3BBD3D0CAD649
:100F8B00D6B800C2BCC8EBD6B8CEC6CDBCCFF1CA62
:100F9B00A7B0DC0020D6B8CEC6CCABB8C9BBF2CC60
:100FAB00ABB5AD200020D6B8CEC6CCABCAAABBF22F
:100FBB00CCABBAFD20002020D6B8CEC6CDBCCFF12D
:100FCB00CCABC2D220200020D6B8CEC6CCD8D5F719
:100FDB00B5E3CCABC9D92000202020D6B8CEC6B201
:100FEB00BBC6A5C5E42020200020C3BBD3D0CBD1EA
:100FFB00CBF7B5BDD6B8CEC62000202020CCD8D597
:10100B00F7BACFB2A2CAA7B0DC2000B5D8D6B7D0FA
:10101B00F2BAC5B3ACB3F6B7B6CEA7002020C9BEA3
:10102B00B3FDC4A3B0E5CAA7B0DC20200020C7E500
:10103B00BFD5D6B8CEC6BFE2CAA7B0DC2000BBBABC
:10104B00B3E5C7F8C4DACEDED3D0D0A7CDBC002031
:10105B00B6C1D0B4464C415348B3F6B4ED20200092
:10106B00202020CEB4B6A8D2E5B4EDCEF3202020BC
:10107B00002020CEDED0A7BCC4B4E6C6F7BAC5208C
:10108B00200020BCC4B4E6C6F7C4DAC8DDB4EDCE8C
:10109B00F3200020BCC7CAC2B1BED2B3C2EBB4EDC1
:1010AB00CEF3200020202020D6B8CEC6BFE2C2FA55
:1010BB00202020200020202020B5D8D6B7B4EDCE9C
:1010CB00F3202020200020B7B5BBD8C8B7C8CFC2AB
:1010DB00EBD3D0CEF3200020202020C7EBB0B4CA36
:1010EB00D6D6B8202020200020202020D6B8CEC66F
:1010FB00D5FDB3A32020202000202020202020205D
:10110B0020202020202020202000202020C7EBD4CE
:10111B00D9B0B4D2BBB4CE202020002020B6D4B19D
:10112B00C8C1BDB4CED6B8CEC6202000202020200A
:10113B00B6D4B1C8B3C9B9A62020202000202020E6
:10114B0020B6D4B1C8CAA7B0DC20202020002020B4
:10115B00C9FAB3C9D6B8CEC6C4A3B0E5202000C91E
:10116B00FAB3C9D6B8CEC6C4A3B0E5B3C9B9A60005
:10117B0020B0B44B34BCD32CB0B44B32BCF52000F4
:10118B0020202020B0B44B33B1A3B4E62020202084
:10119B00002020303D3C204944203C3D3939202063
:1011AB00200049443D002020C2BCC8EBD6B8CEC6B7
:1011BB00B3C9B9A6202000D6B8CEC6C4A3BFE9B226
:1011CB00E2CAD4B3CCD0F2004B31BCFCCCEDBCD3D7
:1011DB00D6B8CEC6004B33BCFCC9BEB3FDD6B8CE19
:1011EB00C6004B35BCFCD1E9D6A4D6B8CEC6002080
:1011FB0020D6B8CEC6D1E9D6A4B3C9B9A620200053
:10120B002049443A256420B5C3B7D63A256420005B
:10121B00D1E9D6A4CAA7B0DC00C7EBB0B4CAD6D606
:10122B00B8004B34BCD3204B32BCF5204B33C8B782
:10123B00C8CF0020204B35C7E5BFD5D6B8CEC6BF2B
:10124B00E22020004B31B7B5BBD820303D3C4944A0
:10125B003C3D39390020C7E5BFD5D6B8CEC6BFE275
:10126B00B3C9B9A620002020C9BEB3FDD6B8CEC6DF
:07127B00B3C9B9A620200051
:101F950042013900004100BF014400C6FFFFFFFFB9
:091FA5004600C00000000000002D
:10000300438E08759A50538EFB759CFF438E107573
:05001300AF01D2AF2295
:1028E200538EBF438910E4F58B758DDCC28FC28E87
:0328F200D2AB2244
:1028AA009000C6E0FCA3E0FDA3E0FEA3E0FF121B3C
:0128BA001B02
:0B28BB008F9BE59A30E1FB539AFD2251
:0300430002247B19
:10247B00C0E0C0F0C083C082C0D075D000C000C027
:05248B0004C005C007BC
:10249000E59A30E04A539AFEAF9B900139E0FCA3E5
:1024A000E0FDEC20E739C3ED9432EC940050267542
:1024B0008B00758DDCED4C7002D28E900139E47585
:1024C000F001121AB9FC74CC25F0F58274003CF5C9
:0F24D00083EFF0800A900139E04480F0A3E0F040
:1024DF00D007D005D004D000D0D0D082D083D0F098
:0324EF00D0E03208
:03001B0002286D4B
:10286D00C0E0C083C082900139E04480F0A3E0F065
:0F287D00758B00758DDCC28ED082D083D0E03297
:042738007F647E003C
:10273C00D3EF9400EE940040217D0A7C007B557A07
:10274C0000EB1B70011AEB4A70F7ED1D70011CEDCC
:0A275C004C70EAEF1F70D91E80D602
:012766002250
:10255800EF60069000BF7401F09000BFE060393072
:10256800840C30830930820630810320802A7F0A58
:102578007E0012273CE49000BFF02084037F0122F4
:102588002083037F02222082037F03222081037F8E
:1025980004222080187F052230841230830F308275
:0F25A8000C3081093080069000BF7401F07F0075
:0125B7002201
:0A294E007FEF1228BB7F010228BBB7
:10281B0078181228AA78101228AA9000C6E0FCA3F8
:10282B00E0FDA3E0FEA3E0FF7808121B1B1228BB00
:0B283B009000C6A3A3A3E0FF0228BB8F
:0A294100A90712294E12281B7F017E
:03294B000228BBA4
:0428F5007F037E00DF
:0E28F900AD07AC06ECFF1228BBAF050228BBF2
:030018000228BB00
:0E291700AD07AC06ECFF1228BBAF050228BBD3
:10207400FDEC3EFCEA7E002DFFEE3CFE7C00EF2BE7
:0B208400FFEC3EFE1229177FD07E0704
:08208F00900164EEF0A3EFF0F4
:10209700A374EFF0A37401F09000C6E0FCA3E0FD89
:1020A700A3E0FEA3E0FF7818121B1B900168EFF076
:1020B7009000C6E0FCA3E0FDA3E0FEA3E0FF7810DC
:1020C700121B1B900169EFF09000C6E0FCA3E0FD36
:1020D700A3E0FEA3E0FF7808121B1B90016AEFF054
:1020E7009000C6A3A3A3E090016BF0A37407F0E4EC
:1020F700A3F0900139F0A3F090016474FFF5F0129A
:102107001AA345F060317F017E0012273C90013908
:10211700E030E7E4E4900139F0A3F07B019001712E
:1021270004F0A37401F0A37466F07A0079CC12224C
:0D21370006EA494B60C2227B007A00790065
:012144002278
:102767001229431228F57F011200187F05122088CD
:10277700EA494B600C900009121A0F900157F0803C
:0C2787000690015774FFF0900157E0FF2E
:012793002223
:02269100AB0795
:102693001229437F047E001228F97F02120018AF2B
:1026A300031228BBEF2407FFEE33122087EA494BBE
:1026B300600C900009121A0F900157F080069001E8
:0926C3005774FFF0900157E0FF8D
:0126CC0022EB
:102794001229431228F57F031200187F071220889C
:1027A400EA494B600C900009121A0F900143F08023
:0C27B4000690014374FFF0900143E0FF29
:0127C00022F6
:1027C1001229431228F57F051200187F091220886B
:1027D100EA494B600C900009121A0F900143F080F6
:0C27E1000690014374FFF0900143E0FFFC
:0127ED0022C9
:0425B800AB05AA04C1
:1025BC001229417F067E001228F97F06120018AFFF
:1025CC00011228BBEAFF1228BBAF031228BBEAFF9B
:1025DC00E9240DFDE433CD2FFFEE3D12207FEA49B7
:1025EC004B600C900009121A0F900143F08006907A
:0A25FC00014374FFF0900143E0FF7B
:0126060022B1
:0C24F200900141EEF0A3EFF0AB05AA044E
:1024FE001229437F077E001228F97F0C12001890D4
:10250E000141E0FF1228BBA3E0FF1228BBEAFF1235
:10251E0028BBAF031228BB900141E0FCA3E0FDEC09
:10252E002414FFEE33FE7C00EF2D122074EA494B8B
:10253E00600C900009121A0F900143F08006900172
:09254E004374FFF0900143E0FF2B
:012557002261
:1027EE001229431228F57F0D1200187F111220882E
:1027FE00EA494B600C900009121A0F900141F080CB
:0C280E000690014174FFF0900141E0FFD2
:01281A00229B
:081EB600900158ECF0A3EDF0DF
:101EBE001229417F087E001228F97F1B120018AFED
:101ECE00011228BB900158E0FF1228BBA3E0FF12BD
:101EDE0028BBEAFF1228BBAF031228BB900158E0C3
:101EEE00FFE92424FDE433CD2FFFEE3DFEA3E07C7D
:101EFE00002F122074900161EBF0A3EAF0A3E9F039
:101F0E004A4B6073900161E0FBA3E0FAA3E0F99005
:101F1E000009121A0FFF90015FE4F0A3EFF090009A
:101F2E000A121A0FFE90000B121A0F7C002400FFEB
:101F3E00EC3EF990015CE0FBA3E0FAA3E0C98FF060
:101F4E00121ACF900161E0FBA3E0FAA3E0F9900032
:101F5E000C121A0FFE90000D121A0F2400FFEC3E09
:101F6E00FE90015CE0FBA3E0FAA3E0F9900002EE24
:101F7E008FF0121AEE800990015FE4F0A374FFF067
:061F8E0090015FA3E0FFDB
:011F9400222A
:10182700EF121B2E18710018820118930218A403D7
:1018370018B50418C60518D70618E80718F90819BF
:101847000A09191B0A192C0B193A10194B11195CA3
:1018570015196C18197C19198C1A199C1B19AC1CB1
:1018670019BC1F19CC20000019DC90014374FFF04C
:10187700A3740FF0A3745BF00219EA90014374FF9D
:10188700F0A3740FF0A3746CF00219EA900143748B
:10189700FFF0A3740FF0A3747DF00219EA900143DF
:1018A70074FFF0A3740FF0A3748EF00219EA90018D
:1018B7004374FFF0A3740FF0A3749FF00219EA902A
:1018C700014374FFF0A3740FF0A374B0F00219EA98
:1018D70090014374FFF0A3740FF0A374C1F00219D1
:1018E700EA90014374FFF0A3740FF0A374D2F002DF
:1018F70019EA90014374FFF0A3740FF0A374E3F0A7
:101907000219EA90014374FFF0A3740FF0A374F473
:10191700F00219EA90014374FFF0A37410F0A37466
:1019270005F00219EA90014374FFF0A37410F0A3C5
:101937007416F090014374FFF0A37410F0A374279A
:10194700F00219EA90014374FFF0A37410F0A37436
:1019570038F00219EA90014374FFF0A37410F0A362
:101967007449F0807E90014374FFF0A37410F0A3D4
:10197700745AF0806E90014374FFF0A37410F0A3C3
:10198700746BF0805E90014374FFF0A37410F0A3B2
:10199700747CF0804E90014374FFF0A37410F0A3A1
:1019A700748DF0803E90014374FFF0A37410F0A390
:1019B700749EF0802E90014374FFF0A37410F0A37F
:1019C70074AFF0801E90014374FFF0A37410F0A36E
:1019D70074C0F0800E90014374FFF0A37410F0A35D
:0E19E70074D1F0900143E0FBA3E0FAA3E0F915
:0119F50022CF
:030040000218277C
:10128200E4900140F0A3F0A3F0900140E0146078F4
:1012920014700302137A1470030213EE1470030223
:1012A20014492404600302156E90013EE004F07BB1
:1012B200FF7A1079E27D02E4FF121584122767900B
:1012C200013FEFF0600302156E7F0112269190013B
:1012D2003FEFF0600302156E7F01FE12273C7BFF99
:1012E2007A1079F37D02E4FF1215847BFF7A11797B
:1012F200047D04E4FF121584122738E490013EF0C5
:1013020090014004F002156E90013EE004F07BFF74
:101312007A1179157D02E4FF1215847BFF7A117927
:10132200047D04E4FF121584122738122767900106
:101332003FEFF0600302156E7F0212269190013F8B
:10134200EFF0600302156E7F01FE12273C7BFF7AED
:101352001079F37D02E4FF1215847BFF7A11790480
:101362007D04E4FF121584122738E490013EF090C8
:1013720001407402F002156E7BFF7A1179267D021C
:10138200E4FF1215847BFF7A1179047D04E4FF12D5
:10139200158412279490013FEFF07BFF701F7A11A2
:1013A20079377D02FF1215847BFF7A1179047D045F
:1013B200E4FF1215849001407403F080297A1179B8
:1013C200487D02E4FF1215847BFF7A1179047D04C3
:1013D200E4FF12158490013FE0FF120040E4900107
:1013E2003EF0900140F07FF47E0180557BFF7A1140
:1013F20079597D02E4FF1215847BFF7A1179047D0D
:1014020004E4FF1215847FF47E0112273C1227C1E7
:1014120090013FEFF070217BFF7A11796A7D02FF24
:101422001215847BFF7A1179047D04E4FF1215847E
:101432009001407404F08005E4900140F07FE87E62
:101442000312273C02156E7BFF7A11797BE4FDFFC4
:101452001215847BFF7A11798B7D02E4FF121584C9
:101462007BFF7A11799C7D04E4FF121584E49001DC
:1014720041F0A3F090013DE064036075E4FF1225A2
:101482005890013DEFF06402701CF0D3900142E0ED
:101492009400900141E09400400CA3E024FFF090FE
:1014A2000141E034FFF090013DE06404701CF0C3A0
:1014B200900142E09463900141E09400500CA3E05B
:1014C20004F07006900141E004F07BFF7A1179ADDF
:1014D2007D067F28121584900141E0FAA3E0FB907B
:1014E20001477402F0A314F07D067F41122145806A
:1014F20083E490013DF0900141E0FCA3E0FD7F0216
:101502001225B890013FEFF0705A1229687BFF7ADA
:101512001179B17D02E4FF1215847BFF7A117904FF
:101522007D04E4FF1215847FDC7E0512273C12291C
:10153200687BFF7A1179C2E4FDFF1215847BFF7A82
:101542001179D37D027F101215847BFF7A1179E025
:101552007D047F101215847BFF7A1179ED7D067F61
:1015620010021584122968E4900140F07F907E01F8
:1015720012273C90013EE0640A600302128B12299A
:011582006800
:011583002245
:101CC70090013DE064017003021D99E4FF1225585D
:101CD70090013DEFF0122767900142EFF070E17F2E
:101CE70001122691900142EFF06003021D869001D8
:101CF7005C04F0A37401F0A3743EF07B637A00E404
:101D0700FDFC7F01121EB6900142EFF070557BFF7C
:101D17007A1179FA7D02FF12158490015A74FFF047
:101D2700A37412F0A3740BF090013EE0FFA3E090C0
:101D3700015DCFF0A3EFF0900140E0FFA3E0900139
:101D47005FCFF0A3EFF07B017A017943120C5B7B45
:101D5700017A0179437D04E4FF1215847FB87E0B75
:101D670012273C900142E0640970147BFF7A1279D4
:101D77001B7D027F201215847FDC7E0512273C1213
:101D870029687BFF7A1279247D027F20121584024D
:101D97001CC71229687BFF7A1179C2E4FDFF12156F
:101DA700847BFF7A1179D37D027F101215847BFF24
:101DB7007A1179E07D047F101215847BFF7A1179FF
:081DC700ED7D067F100215847A
:101B8600E490013FF0A3F07BFF7A12792DFDFF125E
:101B960015847BFF7A12793E7D02E4FF1215847B61
:101BA600FF7A12794F7D04E4FF12158490013DE01F
:101BB60064037003021C5EE4FF12255890013DEF9A
:101BC600F06402701CF0D3900140E0940090013F55
:101BD600E09400400CA3E024FFF090013FE034FFC6
:101BE600F090013DE06404701CF0C3900140E09465
:101BF6006390013FE09400500CA3E004F07006905F
:101C0600013FE004F090013DE0FF64016077EF647E
:101C160005701DF01227EE90013EEFF0706012295C
:101C2600687BFF7A1279607D02E4FF121584804E8C
:101C36007BFF7A1179AD7D067F2812158490013FCE
:101C4600E0FAA3E0FB9001477402F0A314F07D06CE
:101C56007F41122145021BB290013FE0FEA3E0FF47
:101C66007D017C001224F290013EEFF070101229E3
:101C7600687BFF7A1279717D02E4FF1215847FDC9E
:101C86007E0512273C1229687BFF7A1179C2E4FD92
:101C9600FF1215847BFF7A1179D37D027F1012150E
:101CA600847BFF7A1179E07D047F101215847BFF17
:101CB6007A1179ED7D067F10121584E490013DF0CE
:011CC60022FB
:1023FA00121DCF1229687BFF7A1179C2E4FDFF1200
:10240A0015847BFF7A1179D37D027F101215847BA4
:10241A00FF7A1179E07D047F101215847BFF7A110F
:10242A0079ED7D067F101215841200031228E2E46A
:10243A00FF12255890013DEFF064017007F0122950
:10244A006812128290013DE064037007F012296855
:10245A00121B8690013DE0640570D4F01229687B56
:10246A00FF7A1279247D027F20121584121CC780FC
:01247A00BEA3
:1000460000000000000000000000000000000000AA
:10005600000000F80000000000000033300000003F
:1000660000100C06100C0600000000000000000046
:1000760040C07840C0784000043F04043F040400B8
:10008600007088FC08300000001820FF211E0000C8
:10009600F008F000E018000000211C031E211E00DD
:1000A60000F00888700000001E2123241927211063
:1000B60010160E0000000000000000000000000006
:1000C600000000E0180402000000000718204000AD
:1000D60000020418E000000000402018070000009D
:1000E600404080F0804040000202010F0102020001
:1000F600000000F0000000000101011F01010100E5
:10010600000000000000000080B070000000000049
:1001160000000000000000000001010101010101D2
:100126000000000000000000003030000000000069
:10013600000000008060180400601806010000003E
:1001460000E010080810E000000F102020100F003B
:10015600001010F8000000000020203F20200000C2
:10016600007008080888700000302824222130001A
:1001760000300888884830000018202020110E0022
:100186000000C02010F8000000070424243F2400CB
:1001960000F80888880808000019212020110E00A0
:1001A60000E0108888180000000F112020110E00B2
:1001B60000380808C83808000000003F00000000AA
:1001C6000070880808887000001C222121221C006B
:1001D60000E010080810E0000000312222110F0094
:1001E600000000C0C0000000000000303000000029
:1001F6000000008000000000000080600000000099
:1002060000008040201008000001020408102000B1
:1002160040404040404040000404040404040400FC
:100226000008102040800000002010080402010091
:10023600007048080808F000000000303601000091
:10024600C030C828E810E0000718272423140B0044
:100256000000C038E0000000203C230202273820BE
:1002660008F8888888700000203F202020110E00A2
:10027600C030080808083800071820202010080099
:1002860008F808080810E000203F202020100F0082
:1002960008F88888E8081000203F2020232018004E
:1002A60008F88888E8081000203F200003000000B6
:1002B600C03008080838000007182020221E020057
:1002C60008F808000008F808203F210101213F2016
:1002D600000808F8080800000020203F2020000041
:1002E60000000808F8080800C08080807F00000031
:1002F60008F888C028180800203F2001263820006A
:1003060008F8080000000000203F202020203000D0
:1003160008F8F800F8F80800203F003F003F2000EA
:1003260008F830C00008F808203F200007183F00F2
:10033600E01008080810E0000F10202020100F0021
:1003460008F808080808F000203F21010101000014
:10035600E01008080810E0000F18242438504F0059
:1003660008F8888888887000203F2000030C302019
:1003760000708808080838000038202121221C0057
:10038600180808F8080818000000203F20000000A0
:1003960008F808000008F808001F202020201F0089
:1003A6000878880000C83808000007380E010000E9
:1003B600F80800F80008F800033C0700073C0300B3
:1003C600081868808068180820302C03032C302019
:1003D6000838C800C83808000000203F2000000088
:1003E60010080808C83808002038262120201800E0
:1003F600000000FE020202000000007F40404000B4
:10040600000C30C000000000000000010638C000EB
:1004160000020202FE000000004040407F00000093
:1004260000000402020204000000000000000000B8
:1004360000000000000000008080808080808080B6
:10044600000202040000000000000000000000009E
:1004560000008080808000000019242222223F2094
:1004660008F8008080000000003F112020110E00D7
:100476000000008080800000000E11202020110066
:10048600000000808088F800000E112020103F2018
:100496000000808080800000001F2222222213009C
:1004A600008080F0888888180020203F20200000E7
:1004B6000000808080808000006B9494949360009C
:1004C60008F8008080800000203F210000203F20A7
:1004D60000809898000000000020203F20200000A7
:1004E600000000809898000000C08080807F000097
:1004F60008F8000080808000203F24022D30200074
:10050600000808F8000000000020203F202000001E
:100516008080808080808000203F20003F20003F38
:100526008080008080800000203F210000203F2046
:100536000000808080800000001F202020201F00F7
:10054600808000808000000080FFA12020110E0026
:100556000000008080808000000E112020A0FF8017
:10056600808080008080800020203F2120000100C4
:100576000000808080808000003324242424190019
:10058600008080E0808000000000001F2020000026
:100596008080000000808000001F202020103F2067
:1005A600808080000080808000010E3008060100F7
:1005B60080800080008080800F300C030C300F009C
:1005C60000808000808080000020312E0E312000C7
:1005D600808080000080808080818E7018060100F7
:1005E60000808080808080000021302C2221300015
:1005F60000000000807C020200000000003F404036
:1006060000000000FF00000000000000FF000000E6
:100616000002027C800000000040403F0000000015
:1006260000060101020204040000000000000000B0
:10063600101010FF1090003F484844444442700098
:100646000444827F010000FF4949494949FF0000EF
:100656002030AC63100808F8090E08F808080000F6
:1006660022672212928040211608162140808000BF
:100676001010D0FF9014E4AFA4A4A4AFE4040000CB
:10068600040300FF00894B2A1A0E1A2A4B888000A1
:10069600202020FF2020080808FF080808F800008E
:1006A6001030100F884821110D030D1121418100D2
:1006B6001060028C00FE02F202FE00F800FF00004D
:1006C60004047E018047300F10270047807F00001A
:1006D600404042CC009090909090FF101116100070
:1006E6000000003F1028603F1010010E3040F0005F
:1006F6002424A4FE2322003E22222222223E00009F
:10070600080601FF0106404949497F494949410018
:100716000000FC0404041415569454341404040014
:1007260040300F0001010141817F010101050300F5
:100736004030EF242480E49C105454FF547C100075
:1007460001017F21512618274445455F4545440050
:100756001060028C00109252321E32529212100019
:1007660004047E0100211840807F0830040931000E
:10077600101010FF1010F00000F8080808F800002C
:100786008040300F40807F00007F2020207F0000C7
:1007960080FE8282FE80FE8282FE8000F800FF00DC
:1007A600403F0020BF403F40807F00004F807F00D9
:1007B60000FE225A8620102824E324281020200038
:1007C60000FF040827110D41817F01050931000052
:1007D60002FA8282FE804020504C434C502040005A
:1007E60008184884443F404458414E6058474000EA
:1007F600404042CC000004C40404FC040404040089
:100806000000003F1048407F40407F41414140008A
:100816004042CC0000445454547F54545444400045
:1008260000007F201000FF15151555957F0000006C
:10083600101010FF9020988888E98E8888A8980064
:100846000242817F000080844B28102847800000E8
:1008560000002424242424FC222222232200000037
:10086600020202020242827F020202020202020027
:10087600000202C2020202FE82828282820200001C
:100886004040407F4040407F404040404040400024
:10089600201808EAACA8A8AFA8A8ACEA082818004F
:1008A60000003E02020202FF020212221E000000A7
:1008B6000202F292929292FE92929292F2020200B8
:1008C6000404FF0404040407040444847F040400AD
:1008D6008080808080808080808080808080800092
:1008E6000000000000000000000000000000000002
:1008F60000020C80608040300FC8080828180000ED
:1009060002027E0180402018060106182040800061
:100916000008488808C83800901010FF1010100012
:100926000020100C030418000043807F0000000024
:100936000000FE4040404000FF80402010080000BC
:1009460000007F20201010003F40404040407800CB
:1009560002E2222222FE222222FE222222E202009B
:1009660000FF0008060116080601024C807F000001
:100976000000F8888888880808FF08090AC808005F
:1009860080601F0010201F80402116182641F800A5
:10099600080808F80808081010FF101010F00000EA
:1009A6001030101F088848300E014080403F00007C
:1009B6000040301E101010FF101010101000000024
:1009C60081814121110D0301030D11214181810016
:1009D60000FE02FA02FE4020D8171010F010100098
:1009E6008047300F1067804021160816214080008E
:1009F6008040301E101010FF101010101010000054
:100A0600404042424242427F4242424242404000CD
:100A16001010D0FF901000FC24E4242223E20000F2
:100A2600040300FF0083601F8041261826418000D2
:100A360000020CC000F80848484808FF08098A0068
:100A460002027F80403F001E925E20173846F1006A
:100A5600008060F807003E2222E222223E000000CB
:100A6600010000FF2011090503FF030509112000FD
:100A7600040484E41C0724242424A4642404040019
:100A8600020100FF00020242827F0202020202000D
:100A96008080829292929292929292FE80808000C0
:100AA600404022241048807F040818242240400039
:100AB600000000000001E21CE00000000000000051
:100AC600804020100C03000000030C3040808000A2
:100AD600001088C43300BEAAAAAAAAAABE80000033
:100AE600020100FF00020A120242827F0202020095
:100AF600804020908886808080838C1020408000F3
:100B0600008040201807004080403F0000000000A1
:100B16000484E45C44C42010E82724E4342CE00078
:100B260002017F10103F80601F09093F49897F003D
:100B3600404042CC0000000000FF00000000000022
:100B46000000003F9048201807000718204080004A
:100B5600404042CC0000FC24A4242222A3620000D0
:100B66000040201F20584750484542454850400005
:100B76000000FE0202F2121212F20202FE00000051
:100B860000007F2020272424242720207F00000027
:100B96001060028C00445454547F54545444400012
:100BA60004047E010000FF15151555957F00000011
:100BB600100C4424140405060404142444140C00E4
:100BC600004040414141417F414141414040000098
:100BD6000000FC2424A4643DA62424242424040028
:100BE60040300F1013121212FF12121212101000C0
:101FAE00605D0062D6B8CEC6C4A3BFE9B2E2CAD4A1
:101FBE00B3CCD0F2BCFCCCEDBCD3C9BEB3FDD1E9E1
:101FCE00D6A4C7EBB0B4CAD6D5FDB3A3D4D9D2BB71
:101FDE00B4CEB6D4B1C8C1BDB3C9B9A6CAA7B0DC18
:101FEE00C9FAB0E5BCF5B1A3B4E6C2BCC8EBB5C343
:101FFE00B7D6C8B7C8CFB7B5BBD8C7E5BFD5BFE250
:10200E000060600002202122232425262728292A69
:10201E002B2C2D2E2F303132333435363738393A8A
:10202E003B3C3D3E3F404142434445464748494A7A
:10203E004B4C4D4E4F505152535455565758595A6A
:10204E005B5C5D5E5F606162636465666768696A5A
:10205E006B6C6D6E6F707172737475767778797A4A
:05206E007B7C7D7E007B
:102652009001407401F0A37400F0A37462F0900141
:1026620040E0FBA3E475F001121AB9A9F0FA1219BD
:10267200F6601090013FE004F070E390013EE00448
:0E268200F080DB90013EE0C313FEA3E013FFE7
:012690002227
:09295800D2A4D2A3C2A3C2A4229E
:07296100D2A4C2A3D2A322FD
:0B29070012270F122912AF0412270F35
:05291200D2A4C2A422C2
:07270800AC071229587F788D
:10270F00C2A4E4FEEEC3940874809480501AAD07FF
:10271F00ED548064807004D2A38002C2A3EF25E041
:08272F00FFD2A4C2A40E80DC5D
:01273700227F
:0E292500122708122912E4FF12290702296165
:0E2933001227081229127F401229070229617B
:10001E0012002FE4FDFCFFFE12002F7F10E4FDFC0A
:01002E00FED3
:10002F00AB07AA06ED4C6003022933AF0312292553
:01003F00229E
:05260700900157EFF007
:10260C00E4F9E9FF7E00C39408748094805036EF9F
:10261C0024B0FFEE33FEE4FDFC12001EE4900158E2
:10262C00F0900158E0C3948274809480501490010F
:10263C0057E0FF7E007D017C0012002FA3E004F028
:05264C0080DF0980BDE4
:012651002266
:0926CD00900157E0FFA3E004FDB9
:1026D600A907ED24B0FFE433FEE4FDFC12002FE968
:1026E600240254F0C4540F7E004410FFE4FDFC1293
:1026F600002FE92402FF7E00EF540FFFE4FDFC02E9
:02270600002FA2
:05296800E4FF02260758
:0B22C50090014DEDF090014CEFF0FD9A
:1022D000E490014EF0F9EB24E0F0EDD394817480AA
:1022E0009480400AE490014CF0A3E02402F09001B5
:1022F0004CE0FFA3E0FD1226D6E4F9E9C39408748C
:10230000809480502B90014EE075F010A429F58246
:10231000E435F0F583E5822446F582E5833400F563
:1023200083E493FF7E007D017C0012002F0980CBA7
:1023300090014C1226D0E4F9E9C39408748094808B
:10234000502B90014EE075F010A429F582E435F091
:10235000F583E582244EF582E5833400F583E4932A
:0D236000FF7E007D017C0012002F0980CB64
:01236D00224D
:07288C0090014CEFF0A905DB
:102893007F017E00AD0119ED600C90014CE0FD7CE1
:0628A30000121A3C80EE59
:0128A900220C
:0E214500900143EFF0A3EDF0A3EAF0A3EBF05E
:10215300E490014BF0900149F0900147E0FF9001BA
:1021630049E0FEC39F4003022205C3EF9E14FD7F97
:102173000A12288C900145E0FCA3E0FDCFCDCFCE21
:10218300CCCE121A4E7C007D0A121A4E90014AEDF3
:10219300F0A3E07048900147E014FF900149E0FE8E
:1021A300C39F5039A3E0702F900148E07013EE7580
:1021B300F008A4FF900143E02FFFA3E0FD7B208004
:1021C30035900149E075F008A4FF900143E02FFF2B
:1021D300A3E0FD7B30801F90014B7401F090014917
:1021E300E075F008A4FF900143E02FFFA3E0FD900A
:1021F300014AE02430FB1222C5900149E004F002B9
:02220300215C5C
:0122050022B6
:10158400900157EFF0A3EDF0A3EBF0A3EAF0A3E989
:01159400F066
:10159500E4A3F0A3F0900159E0FBA3E0FAA3E0F97E
:1015A5001219F67003021826D394A0748094805003
:1015B5000302170EE490015CF0A3F0900000E0FE3A
:1015C500A3E0FF90015CE0FCA3E0FDC39FEC9E401F
:1015D50003021704900157E09470748094804007CB
:1015E500E4F0A3E02402F0ED25E0FFEC33FE7462A5
:1015F5002FF58274003EF583E0FF900159E0FBA3CF
:10160500E0FAA3E0F91219F66F60030216F39000F1
:1016150001121A0FFD90015DE025E0FF90015CE0ED
:1016250033FE74632FF58274003EF583E06D60032D
:101635000216F3900157E0FFA3E0FD1226D6E490D1
:10164500015EF0A3F090015EE0FCA3E0FDC3941001
:10165500EC9400503B90015CE0FEA3E07805C333B9
:10166500CE33CED8F92DFFEC3EFE74362FF58274BD
:10167500063EF583E493FF7E007D017C0012002F7A
:1016850090015FE004F070BD90015EE004F080B56C
:101695001226CDE490015EF0A3F090015EE0FCA37C
:1016A500E0FDC39410EC9400503B90015CE0FEA378
:1016B500E07805C333CE33CED8F92DFFEC3EFE746A
:1016C500462FF58274063EF583E493FF7E007D0187
:1016D5007C0012002F90015FE004F070BD90015E68
:1016E500E004F080B5900157E02410F080119001DE
:1016F5005DE004F0700690015CE004F00215C09016
:10170500015AE475F002021820900157E0D394784D
:10171500748094804007E4F0A3E02402F09001591E
:10172500E0FBA3E0FAA3E0F91219F6FD7B017A00CC
:1017350079021228C6900160EBF0A3EAF0A3E9F064
:10174500900160E0FBA3E0FAA3E04A4B70030218A6
:1017550019900157E0FFA3E0FD1226D6E490015E43
:10176500F0A3F090015EE0FEA3E0FFC39408EE94C1
:10177500005040A3E0FBA3E0FAA3E0F91219F675C7
:10178500F010A42FF582E5F03EF583E5822446F5B9
:1017950082E58334FEF583E493FF7E007D017C00C2
:1017A50012002F90015FE004F070B890015EE00434
:1017B500F080B01226CDE490015EF0A3F090015EBA
:1017C500E0FEA3E0FFC39408EE94005040A3E0FBC5
:1017D500A3E0FAA3E0F91219F675F010A42FF5822B
:1017E500E5F03EF583E582244EF582E58334FEF58A
:1017F50083E493FF7E007D017C0012002F90015F42
:10180500E004F070B890015EE004F080B0900157FC
:10181500E02408F090015AE475F001121AA30215AC
:011825009A28
:01182600229F
:101DCF00122652900000EEF0A3EFF0E4FDFC7FAE80
:101DDF00FE12001E7F4012002BE4FDFC7FB0FE12AE
:101DEF00002FE4FDFC7F81FE12002FE4FDFC7FFF3E
:101DFF00FE12002FE4FDFC7FA1FE12002FE4FDFC7C
:101E0F007FA6FE12002FE4FDFC7FA8FE12002FE438
:101E1F00FDFC7F3FFE12002FE4FDFC7FC8FE120089
:101E2F002FE4FDFC7FD3FE12002FE4FDFCFFFE121A
:101E3F00002FE4FDFC7FD5FE12002FE4FDFC7F8018
:101E4F00FE12002FE4FDFC7FD8FE12002FE4FDFCF4
:101E5F007F05FE12002FE4FDFC7FD9FE12002FE458
:101E6F00FDFC7FF1FE12002FE4FDFC7FDAFE120075
:101E7F002FE4FDFC7F12FE12002FE4FDFC7FDBFE42
:101E8F0012002FE4FDFC7F30FE12002FE4FDFC7FDB
:101E9F008DFE12002FE4FDFC7F14FE12002FE4FDD7
:071EAF00FC7FAFFE02002FD3
:0300000002236E6A
:0C236E00787FE4F6D8FD7581210223B5CC
:1019F600BB010689828A83E0225002E722BBFE02EF
:091A0600E32289828A83E4932221
:101A0F00BB010CE58229F582E5833AF583E022508C
:101A1F0006E92582F8E622BBFE06E92582F8E222D6
:0D1A2F00E58229F582E5833AF583E49322F0
:101A3C00EF8DF0A4A8F0CF8CF0A428CE8DF0A42EBE
:021A4C00FE2278
:101A4E00BC000BBE0029EF8DF084FFADF022E4CC7C
:101A5E00F875F008EF2FFFEE33FEEC33FCEE9DEC45
:101A6E00984005FCEE9DFE0FD5F0E9E4CEFD22ED8B
:101A7E00F8F5F0EE8420D21CFEADF075F008EF2FD5
:101A8E00FFED33FD4007985006D5F0F222C398FDC6
:051A9E000FD5F0EA2263
:101AA300C5F0F8A3E028F0C5F0F8E58215827002CE
:061AB3001583E038F0226B
:101AB900A3F8E0C5F025F0F0E582158270021583E0
:061AC900E0C838F0E8223D
:101ACF00BB010A89828A83F0E5F0A3F0225006F762
:0F1ADF0009A7F01922BBFE06F3E5F009F319225F
:101AEE00F8BB0111E58229F582E5833AF583E8F02A
:101AFE00E5F0A3F0225009E92582C8F608A6F022E7
:0D1B0E00BBFE09E92582C8F2E5F008F222CD
:101B1B00E8600FECC313FCED13FDEE13FEEF13FFA8
:031B2B00D8F122CC
:101B2E00D083D082F8E4937012740193700DA3A346
:101B3E0093F8740193F5828883E47374029368605A
:061B4E00EFA3A3A380DF5A
:100BF600E508245AF582E43401F583E005082290DD
:100C0600015730070390015AE475F001121B660282
:100C160019F62000E97F2ED2008018EF540F249099
:100C2600D43440D4FF30040BEF24BFB41A00500371
:100C36002461FFE50960021509050CE50C70020543
:100C46000B30070E900157E475F001121B66EF0298
:100C56001B540228467403D2078003E4C207F50832
:100C6600900157121B7DE4F509F50BF50CE50960BB
:100C7600077F20120C3980F5750AFFC201C200C237
:100C860002C203C205C206C208120C05FF700D306F
:100C960007057F00120C4AAF0CAE0B22B4255FC2CB
:100CA600D5C204120C05FF24D0B40A00501A75F000
:100CB6000A780930D50508B6FF0106C6A426F6202F
:100CC600D5047002D20380D924CFB41A00EF5004A1
:100CD600C2E5D204020E4BD20180C6D20080C0D239
:100CE6000280BCD2D580BAD20580B47F20120C39DE
:100CF6002002077401B5090040F1120BF6FF120C31
:100D060039020C73D208D2068095120BF6FB120B31
:100D1600F6FA120BF6F94A4B7006791C7A0F7BFF2E
:100D260020022EE509602A7E008E82758300121A43
:100D36000F60060EEE650A70F0C2D5EBC0E0EAC0A1
:100D4600E0E9C0E0EE120E92D0E0F9D0E0FAD0E091
:100D5600FB1219F6FF60AAEBC0E0EAC0E0E9C0E0CA
:100D6600120C39D0E02401F9D0E03400FAD0E0FBCF
:100D7600E50A0460DCD50AD980877BFF7A0E798E76
:100D8600D202809C791080027908C206C2088008C7
:100D9600D2D5790A8004790AC2D5E50A047002F52B
:100DA6000AE4FAFDFEFF120BF6FC7B082001131283
:100DB6000BF6FD7B1030000A120BF6FE120BF6FF47
:100DC6007B20EC3382D592D55013C3E43000069FC6
:100DD600FFE49EFEE42001039DFDE49CFCE4CBF8C9
:100DE600C201EC700CCFCECDCCE824F8F870F380BD
:100DF60017C3EF33FFEE33FEED33FDEC33FCEB337D
:100E0600FB994002FB0FD8E9EB300105F8D0E0C4AE
:100E160048B201C0E00AEC4D4E4F78207B0070C20C
:100E2600EAB50A0040BCC0E0120E94D0F0D0E02033
:100E36000104C4C0E0C4B201C0F0120C22D0F0D547
:100E4600F0EB020C73121B2E0D10530D8A580CE199
:100E56004C0CDD420D8E4F0D96440D96490CF64313
:080E66000D9C550D80460D8026
:100E6E00450D80470F3C500CE52D0CE92E0D0C2B3B
:100E7E000CED230D0A200F252A0CA54800000D04A9
:100E8E003F3F3F00790AA2D5200314300509B9105F
:100E9E00020404B9080104A2D52006025001042060
:100EAE0002689202B509005034C0E07F2030031969
:100EBE007F30A20272067205500F120EEBC202C2F2
:100ECE0006C205C2087F30800F300503E9C0E0126C
:100EDE000C39300503D0E0F9D0E0B509CC30051758
:100EEE007F30B9100C120C397F583004077F788090
:100EFE0003B90803120C393002057F2D020C397F1D
:100F0E00202008F87F2B2006F322920280CF286E35
:100F1E00756C6C2900D201120BF63001F8C2017803
:100F2E000930D50108F6020CA52D50434958120B75
:100F3E00F62403B405004001E4900F3793120C2AF7
:0D0F4E00743A120C2AD203750904020D8AB0
:1028C600E94A4B7001221219F6FF6D700122EF7072
:0C28D60004FBFAF92209E970ED0A80EA1F
:1022060090016EEBF0A3EAF0A3E9F0A3E0FBA3E0F4
:10221600FAA3E0F91219F670030222B290016EE0F9
:10222600FBA3E0FAA3E0F91219F670030222BE90AE
:102236000171E0F9A3E0FAA3E0A3C9F0A3EAF0A3D1
:10224600E9F090016EA3E0FAA3E0F9900177EBF0D4
:10225600A3EAF0A3E9F0900174E0FBA3E0FAA3E09F
:10226600F91219F6FF6026900177E0FBA3E0FAA3C6
:10227600E0F91219F66F701590017575F001121AD2
:10228600A3900178E475F001121AA380C990017435
:10229600E0FBA3E0FAA3E0F91219F67002800D90B4
:1022A600016FE475F001121AA302222290016EE07A
:0F22B600FBA3E0FAA3E0F9227B007A0079002273
:10237A000223FAE493A3F8E493A34003F68001F25C
:10238A0008DFF48029E493A3F85407240CC8C33364
:10239A00C4540F4420C8834004F456800146F6DF33
:1023AA00E4800B0102040810204080901F95E47E0F
:1023BA00019360BCA3FF543F30E509541FFEE49328
:1023CA00A360010ECF54C025E060A840B8E493A3EF
:1023DA00FAE493A3F8E493A3C8C582C8CAC583CA1A
:1023EA00F0A3C8C582C8CAC583CADFE9DEE780BED2
:01207300006C
:101B5400BB010689828A83F0225002F722BBFE0170
:021B6400F3226A
:101B6600F8E0FBA3A3E0F925F0F0E5821582700208
:071B76001583E0FA38F022AC
:091B7D00EBF0A3EAF0A3E9F02269
:10284600EFB40A07740D122851740A309811A8992A
:10285600B8130CC2983098FDA899C298B811F630F2
:0728660099FDC299F59922CA
:00000001FF
