:0600E60001080001090001
:0B00DB00EF1FAC0670011E4C70F622F7
:10008F00758920758DFD758BFDE4F587D28E75987A
:08009F0050C298C299C2B222BE
:0C00CF00D2B28F993099FDC299C2B222C2
:1000A70020B7147F787E001200DB20B7070509AF61
:0800B700091200CF30B7FD2251
:1000BF0012008F309805859908C2981200A780F317
:03000000020003F8
:0C000300787FE4F6D8FD75810902004A00
:10000F000200BFE493A3F8E493A34003F68001F248
:10001F0008DFF48029E493A3F85407240CC8C333F2
:10002F00C4540F4420C8834004F456800146F6DFC1
:10003F00E4800B01020408102040809000E6E47E6B
:10004F00019360BCA3FF543F30E509541FFEE493B6
:10005F00A360010ECF54C025E060A840B8E493A37D
:10006F00FAE493A3F8E493A3C8C582C8CAC583CAA8
:10007F00F0A3C8C582C8CAC583CADFE9DEE780BE60
:0100EC000013
:00000001FF
